:020000020000FC
:100000000FEF01B904B92A980E943E0008E30E944C
:100010001F000E943E000EE00E941F0001E00E94AF
:100020001F000E943E0006E00E941F000E943E004A
:1000300008E40E94290009E60E942900FFCF02B9C6
:10004000289829982A9A0E9433002A980E943600FC
:10005000089502B9289A29982A9A0E9433002A986A
:100060000E94360008950000000008951F931CE3CD
:100070000E9433001A95E1F71F9108951F9314E130
:0C0080000E9436001A95E1F71F910895C8
:00000001FF
