:020000020000FC
:1000000041E052E064E078E080E190E2A0E4B0E01A
:10001000F1E030E031B90E944700189B3427199B6A
:1000200035271A9B36271B9B37271C9B38271D9B80
:1000300039271E9B3A271F9B01C0ECCFF51301C047
:1000400004C0F32E30E0F395E5CF132FB1B9189B20
:1000500007C0199B08C01A9B09C01B9B0AC0F7CF99
:100060001F1D312F0BC0F11A3F2D08C0F19E302DFE
:1000700005C03395F11AF116E4F700C031B90E94BA
:100080004700B1B90E9447001F9BC2CFF7CFCAE01B
:10009000DFEFEFEFEA95F1F7DA95D9F7CA95C1F7F7
:0200A0000895C1
:00000001FF
