S01500004672656552544F535F564941322E73726563D4
S113000083C00000A2C00000A0C000009EC0000089
S11300109CC000009AC0000098C0000096C0000078
S113002094C000000C94EA1290C000008EC000003E
S11300308CC000008AC0000088C0000086C0000098
S113004084C0000082C0000080C000007EC00000A8
S11300507CC000007AC0000078C0000076C00000B8
S113006074C000000C9419140C9465146EC0000044
S11300706CC000006AC0000068C0000066C00000D8
S1130080B8C6000062C0000060C000005EC000008E
S11300905CC000005AC0000058C0000056C00000F8
S11300A054C0000052C0000050C000004EC0000008
S11300B04CC000004AC0000048C0000046C0000018
S11300C044C0000042C0000040C000003EC0000028
S11300D03CC000003AC0000038C0000036C0000038
S11300E034C00000CF93DF931F921F92CDB7DEB7C9
S11300F09A8389830E94D9118091FA0D823008F085
S113010003D50E94C913F6CF11241FBECFEFD1E24D
S1130110DEBFCDBF00E00CBF12E0A0E0B2E0E0ED36
S1130120F9E200E00BBF02C007900D92A031B107C5
S1130130D9F72EE0A0E1B2E001C01D92AE35B207BE
S1130140E1F70E9451130C94E6140C94D213CF934C
S1130150DF931F921F92CDB7DEB79A83898389817B
S11301609A819C012D5F3F4F89819A81FC013283E2
S1130170218389819A812FEF3FEFFC01348323830C
S113018089819A819C012D5F3F4F89819A81FC016D
S11301903683258389819A819C012D5F3F4F898114
S11301A09A81FC013087278389819A81FC0110821E
S11301B00F900F90DF91CF910895CF93DF931F920B
S11301C01F92CDB7DEB79A83898389819A81FC0116
S11301D0118610860F900F90DF91CF910895CF93E1
S11301E0DF9300D000D0CDB7DEB79C838B837E83B2
S11301F06D838B819C81FC01818192819A838983A7
S11302008D819E8129813A81FC01338322838981F6
S11302109A81FC01248135818D819E81FC01358385
S1130220248389819A81FC01848195812D813E8179
S1130230FC013383228389819A812D813E81FC01D3
S1130240358324838D819E812B813C81FC01318700
S113025020878B819C81FC01808121E0280F8B8188
S11302609C81FC01208326960FB6F894DEBF0FBE56
S1130270CDBFDF91CF910895CF93DF93CDB7DEB794
S113028028970FB6F894DEBF0FBECDBF9E838D8333
S113029078876F838F819885FC01808191819C830D
S11302A08B838B819C81019641F48D819E81FC011D
S11302B0878190859A8389831AC08D819E81039654
S11302C09A83898307C089819A81FC018281938101
S11302D09A83898389819A81FC0182819381FC01BB
S11302E0208131818B819C818217930760F78981FA
S11302F09A81FC01228133818F819885FC013383AB
S113030022838F819885FC01828193812F81388596
S1130310FC01358324838F81988529813A81FC01EE
S11303203583248389819A812F813885FC01338325
S113033022838F8198852D813E81FC01318720871E
S11303408D819E81FC01808121E0280F8D819E8119
S1130350FC01208328960FB6F894DEBF0FBECDBFF4
S1130360DF91CF910895CF93DF9300D01F92CDB743
S1130370DEB79C838B838B819C81FC018085918576
S11303809A8389838B819C81FC01828193812B8157
S11303903C81F90124813581FC01358324838B81DF
S11303A09C81FC01848195812B813C81F90122810E
S11303B03381FC013383228389819A81FC01218169
S11303C032818B819C812817390751F48B819C8160
S11303D0FC012481358189819A81FC013283218346
S11303E08B819C81FC011186108689819A81FC0194
S11303F080812FEF280F89819A81FC0120838981D4
S11304009A81FC0180810F900F900F900F90DF91E3
S1130410CF910895CF93DF931F921F92CDB7DEB78C
S113042039C0F89480912B0290912C02FC018681B2
S113043097819A83898389819A810C9694DF789431
S113044089819A8102968FDF89819A81FC0196893C
S113045080913102891730F489819A81FC0186895F
S11304608093310289819A81AC014E5F5F4F89810B
S11304709A81FC018689282F30E0C901880F991FD1
S1130480880F991F880F991F820F931F805F9D4FBC
S1130490BA01A5DE80912602882309F0C2CF0F900D
S11304A00F90DF91CF910895CF93DF9300D01F92E7
S11304B0CDB7DEB70E94580E9C0180913402909112
S11304C03502A901481B590BCA0190933702809346
S11304D0360286C080913202909133020196909345
S11304E03302809332028091360290913702019751
S11304F090933702809336028091320290913302B6
S1130500892BA1F480912202909123029A838983FA
S113051080912402909125029093230280932202D9
S113052089819A81909325028093240250C08091FE
S1130530220290912302FC0185819681FC0186812F
S113054097819C838B838B819C81FC0122813381E5
S113055080913202909133028217930708F440C0CD
S1130560F8948B819C810296FEDE8B819C81FC0138
S113057084899589892B21F08B819C810C96F3DEEB
S113058078948B819C81FC01968980913102891732
S113059030F48B819C81FC018689809331028B81AC
S11305A09C81AC014E5F5F4F8B819C81FC018689ED
S11305B0282F30E0C901880F991F880F991F880FD1
S11305C0991F820F931F805F9D4FBA0108DE8091AF
S11305D0220290912302FC018081882309F0A7CF95
S11305E08091360290913702892B09F073CF809164
S11305F032029091330290933502809334020F902B
S11306000F900F900F90DF91CF910895CF93DF93C8
S11306101F921F92CDB7DEB7FDDE46DF0AC0809180
S11306203102882309F46FC0809131028150809394
S1130630310280913102282F30E0C901880F991FBF
S1130640880F991F880F991F820F931F805F9D4FFA
S1130650FC018081882319F380913102282F30E036
S1130660C901880F991F880F991F880F991F820F3E
S1130670931F805F9D4F9A83898389819A81FC01AE
S113068081819281FC012281338189819A81FC01DB
S11306903283218389819A81FC012181328189817C
S11306A09A8103962817390769F489819A81FC0194
S11306B081819281FC012281338189819A81FC01AB
S11306C03283218389819A81FC0181819281FC0199
S11306D0868197819093300280932F0280912F021C
S11306E090913002FC012081318180912F02909100
S11306F03002FC01478980912F0290913002642FCF
S1130700F901199500000F900F90DF91CF91089592
S1130710CF93DF93CDB7DEB728970FB6F894DEBF3B
S11307200FBECDBF9C838B837E836D8358874F839D
S11307308B819C8121E1FC0120838B819C81019729
S11307409C838B838B819C8122E2FC0120838B819F
S11307509C8101979C838B838B819C8123E3FC0187
S113076020838B819C8101979C838B838D819E81C7
S11307709A83898329818B819C81FC0120838B81CD
S11307809C8101979C838B8389819A81892F9927E6
S11307909A83898329818B819C81FC0120838B81AD
S11307A09C8101979C838B838B819C81FC011082AB
S11307B08B819C8101979C838B838B819C81FC0121
S11307C010828B819C8101979C838B838B819C817C
S11307D020E8FC0120838B819C8101979C838B837F
S11307E08B819C81FC0110828B819C8101979C836D
S11307F08B838B819C81FC0110828B819C8101976E
S11308009C838B838B819C81FC0110828B819C81D6
S113081001979C838B838B819C8122E0FC01208344
S11308208B819C8101979C838B838B819C8123E0AA
S1130830FC0120838B819C8101979C838B838B811A
S11308409C8124E0FC0120838B819C8101979C8303
S11308508B838B819C8125E0FC0120838B819C818F
S113086001979C838B838B819C8126E0FC012083F0
S11308708B819C8101979C838B838B819C8127E056
S1130880FC0120838B819C8101979C838B838B81CA
S11308909C8128E0FC0120838B819C8101979C83AF
S11308A08B838B819C8129E0FC0120838B819C813B
S11308B001979C838B838B819C8120E1FC012083A5
S11308C08B819C8101979C838B838B819C8121E10B
S11308D0FC0120838B819C8101979C838B838B817A
S11308E09C8122E1FC0120838B819C8101979C8364
S11308F08B838B819C8123E1FC0120838B819C81F0
S113090001979C838B838B819C8124E1FC01208350
S11309108B819C8101979C838B838B819C8125E1B6
S1130920FC0120838B819C8101979C838B838B8129
S11309309C8126E1FC0120838B819C8101979C830F
S11309408B838B819C8127E1FC0120838B819C819B
S113095001979C838B838B819C8128E1FC012083FC
S11309608B819C8101979C838B838B819C8129E162
S1130970FC0120838B819C8101979C838B838B81D9
S11309809C8120E2FC0120838B819C8101979C83C4
S11309908B838B819C8121E2FC0120838B819C8150
S11309A001979C838B838B819C8122E2FC012083B1
S11309B08B819C8101979C838B838B819C8123E217
S11309C0FC0120838B819C8101979C838B838F8185
S11309D098859A83898329818B819C81FC0120835A
S11309E08B819C8101979C838B8389819A81892F38
S11309F099279A83898329818B819C81FC01208397
S1130A008B819C8101979C838B838B819C8126E2C3
S1130A10FC0120838B819C8101979C838B838B8138
S1130A209C8127E2FC0120838B819C8101979C831C
S1130A308B838B819C8128E2FC0120838B819C81A8
S1130A4001979C838B838B819C8129E2FC01208309
S1130A508B819C8101979C838B838B819C8120E378
S1130A60FC0120838B819C8101979C838B838B81E8
S1130A709C8121E3FC0120838B819C8101979C83D1
S1130A808B838B819C8128960FB6F894DEBF0FBEB2
S1130A90CDBFDF91CF910895CF93DF93CDB7DEB76C
S1130AA010D1A091F80DB091F90DCD91CDBFDD918C
S1130AB0DEBFFF91EF91DF91CF91BF91AF919F91F5
S1130AC08F917F916F915F914F913F912F911F91E2
S1130AD00F91FF90EF90DF90CF90BF90AF909F90D9
S1130AE08F907F906F905F904F903F902F901F90CA
S1130AF00F900CBE0F900BBE0F900FBE0F90089579
S1130B0081E0DF91CF9108950F920FB6F8940F9280
S1130B100BB60F920CB60F921F9211242F923F9294
S1130B204F925F926F927F928F929F92AF92BF92F9
S1130B30CF92DF92EF92FF920F931F932F933F93E5
S1130B404F935F936F937F938F939F93AF93BF93D1
S1130B50CF93DF93EF93FF93A091F80DB091F90D2C
S1130B600DB60D920EB60D920E945D0FA091F80D78
S1130B70B091F90DCD91CDBFDD91DEBFFF91EF9125
S1130B80DF91CF91BF91AF919F918F917F916F91A1
S1130B905F914F913F912F911F910F91FF90EF9093
S1130BA0DF90CF90BF90AF909F908F907F906F9089
S1130BB05F904F903F902F901F900F900CBE0F901E
S1130BC00BBE0F900FBE0F9008950F920FB6F894BE
S1130BD00F920BB60F920CB60F921F9211242F9204
S1130BE03F924F925F926F927F928F929F92AF92B9
S1130BF0BF92CF92DF92EF92FF920F931F932F93A6
S1130C003F934F935F936F937F938F939F93AF9390
S1130C10BF93CF93DF93EF93FF93A091F80DB0911F
S1130C20F90D0DB60D920EB60D9280913A02909187
S1130C303B02019790933B0280933A0280913A02DF
S1130C4090913B02892B41F48091380290913902B2
S1130C5090933B0280933A020E94700E882311F015
S1130C600E945D0FA091F80DB091F90DCD91CDBF0B
S1130C70DD91DEBFFF91EF91DF91CF91BF91AF91F5
S1130C809F918F917F916F915F914F913F912F91A0
S1130C901F910F91FF90EF90DF90CF90BF90AF9096
S1130CA09F908F907F906F905F904F903F902F9088
S1130CB01F900F900CBE0F900BBE0F900FBE0F90A5
S1130CC00895CF93DF93CDB7DEB72A970FB6F89484
S1130CD0DEBF0FBECDBF80E197E2A0E0B0E0898324
S1130CE09A83AB83BC8389819A81AB81BC816894EC
S1130CF015F8B695A795979587951694D1F7898396
S1130D009A83AB83BC8389819A81AB81BC81880F30
S1130D10991FAA1FBB1F880F991FAA1FBB1F880FEB
S1130D20991FAA1FBB1F880F991FAA1FBB1F880FDB
S1130D30991FAA1FBB1F880F991FAA1FBB1F9C01C5
S1130D40AD0180E896E9A8E9B0E0BC01CD010E94BC
S1130D50BB14DA01C901909339028093380280915F
S1130D6038029091390290933B0280933A02898130
S1130D709A81AB81BC810197A109B10989839A83C6
S1130D80AB83BC8389818D8389819A81AB81BC814A
S1130D90892F9A2FAB2FBB2789839A83AB83BC837C
S1130DA089818E8389E990E02E81FC01208388E982
S1130DB090E02D81FC0120838BE08D8381E990E01C
S1130DC02D81FC01208381E790E0FC0180818D83EB
S1130DD08D8182608D8381E790E02D81FC012083E9
S1130DE02A960FB6F894DEBF0FBECDBFDF91CF9128
S1130DF00895EBDE1895CF93DF9300D01F92CDB703
S1130E00DEB79C838B831A821982BAD68091F60D41
S1130E109091F70D892B31F48DE392E09093F70DC7
S1130E208093F60D2091F40D3091F50D8B819C810A
S1130E30820F931F873B9B4038F52091F40D30912E
S1130E40F50D8B819C81280F391F8091F40D9091B1
S1130E50F50D82179307C0F42091F60D3091F70D2C
S1130E608091F40D9091F50D820F931F9A838983DD
S1130E702091F40D3091F50D8B819C81820F931F8D
S1130E809093F50D8093F40D87D689819A810F9004
S1130E900F900F900F90DF91CF910895CF93DF9330
S1130EA01F921F92CDB7DEB79A8389830F900F905C
S1130EB0DF91CF910895CF93DF9300D01F921F92BB
S1130EC0CDB7DEB79C838B836D838B819C819A83A2
S1130ED089830FB6F8940F9289819A81FC018081ED
S1130EE0918129813A81F901238D422F50E0298192
S1130EF03A81F901248D222F30E0429FB001439FB3
S1130F00700D529F700D11249B01280F391F898188
S1130F109A81FC013383228389819A81FC01128E98
S1130F2089819A81FC012081318189819A81FC0126
S1130F303583248389819A81FC018081918129816F
S1130F403A81F901238D222F30E0A9014150510942
S1130F5029813A81F901248D222F30E0429FB0018A
S1130F60439F700D529F700D11249B01280F391F50
S1130F7089819A81FC013783268389819A812FEFA5
S1130F80FC01258F89819A812FEFFC01268F8D81A9
S1130F90882379F489819A81FC018085882389F0EA
S1130FA089819A8108960E941E10813051F4ACDD2B
S1130FB008C089819A810896CAD889819A81419604
S1130FC0C6D80F900FBE81E00F900F900F900F9036
S1130FD00F90DF91CF910895CF93DF93CDB7DEB714
S1130FE02B970FB6F894DEBF0FBECDBF89876A87F3
S1130FF04B871C821B828A85882319F41A821982E2
S113100011C08985282F30E08A85882F90E0289F99
S1131010A001299F500D389F500D1124CA0101963B
S11310209A83898389819A814F96E5DE9E838D8395
S11310308D819E81892B59F18D819E8198878F8323
S11310408A85882341F48F8198852F813885FC0116
S1131050318320830AC08D819E819C01215E3F4F94
S11310608F819885FC01318320838F819885298520
S1131070FC01238F8F8198852A85FC01248F8F8121
S1131080988561E018DF8F8198859C838B838B81A1
S11310909C812B960FB6F894DEBF0FBECDBFDF91B7
S11310A0CF910895CF93DF93CDB7DEB72E970FB6C8
S11310B0F894DEBF0FBECDBF998788877B876A8788
S11310C05D874C872E871982888599859B838A83BF
S11310D00FB6F8940F928A819B81FC01228D8A813C
S11310E09B81FC01838D281718F08E858230F1F4E2
S11310F02A853B858A819B814E85B9014BD28C839D
S11311008A819B81FC018189882341F08A819B81AA
S1131110419694D7813031F4F7DC04C08C81882364
S113112009F0F2DC0F900FBE81E055C08C859D85DF
S1131130892B21F40F900FBE80E04DC08981882354
S113114029F4CE010596E7D781E089830F900FBE7D
S113115017D50FB6F8940F928A819B81FC01858D77
S11311608F3F21F48A819B81FC01158E8A819B81AA
S1131170FC01868D8F3F21F48A819B81FC01168EB0
S11311800F900FBE9E01245F3F4FCE010596B9011B
S1131190DED78823C9F48A819B8189D3882379F097
S11311A02C853D858A819B810896B90114D78A8153
S11311B09B81FFD2F1D4882369F4A6DC0BC08A8119
S11311C09B81F7D2E9D484CF8A819B81F2D2E4D483
S11311D080E001C07DCF2E960FB6F894DEBF0FBE1F
S11311E0CDBFDF91CF910895CF93DF93CDB7DEB715
S11311F02B970FB6F894DEBF0FBECDBF9E838D83B1
S113120078876F835A8749872B878D819E819B833B
S11312108A831C828A819B81FC01228D8A819B8125
S1131220FC01838D281718F08B85823081F52F817E
S113123038858A819B814B85B901ACD18A819B8198
S1131240FC01868D8F3FB1F48A819B81FC018189E9
S11312508823D1F08A819B814196F0D68823A1F01E
S113126089859A85892B81F089859A8521E0FC01FD
S113127020830AC08A819B81FC01868D8F5F282F81
S11312808A819B81FC01268F81E0898301C01982B8
S113129089812B960FB6F894DEBF0FBECDBFDF91C8
S11312A0CF910895CF93DF93CDB7DEB728970FB6CC
S11312B0F894DEBF0FBECDBF9E838D8378876F8386
S11312C08D819E819B838A831C828A819B81FC0100
S11312D0228D8A819B81FC01838D281798F58A8150
S11312E09B81FC01828D21E0280F8A819B81FC0176
S11312F0228F8A819B81FC01868D8F3FB1F48A8184
S11313009B81FC0181898823D1F08A819B8141964C
S113131095D68823A1F08F819885892B81F08F81C0
S1131320988521E0FC0120830AC08A819B81FC010D
S1131330868D8F5F282F8A819B81FC01268F81E017
S1131340898301C01982898128960FB6F894DEBF7B
S11313500FBECDBFDF91CF910895CF93DF93CDB76B
S1131360DEB72F970FB6F894DEBF0FBECDBF9A87B6
S113137089877C876B875E874D872F87198289854C
S11313809A859B838A830FB6F8940F928A819B81F6
S1131390FC01828D882309F440C08A819B81FC0171
S11313A0868197819D838C832B853C858A819B8153
S11313B0B901AFD18F858823C1F48A819B81FC0157
S11313C0828D2FEF280F8A819B81FC01228F8A81D5
S11313D09B81FC0180858823E1F08A819B810896AA
S11313E02DD68130B1F490DB14C08A819B812C818D
S11313F03D81FC01378326838A819B81FC0181899D
S1131400882339F08A819B81419618D6882309F074
S11314107BDB0F900FBE81E055C08D859E85892BA7
S113142021F40F900FBE80E04DC08981882329F4F8
S1131430CE01069670D681E089830F900FBEA0D3AB
S11314400FB6F8940F928A819B81FC01858D8F3FA2
S113145021F48A819B81FC01158E8A819B81FC0188
S1131460868D8F3F21F48A819B81FC01168E0F901B
S11314700FBE9E01235F3F4FCE010696B90167D68A
S11314808823C9F48A819B81F5D1882379F02D853D
S11314903E858A819B814196B9019DD58A819B8134
S11314A088D17AD3882369F42FDB0BC08A819B818E
S11314B080D172D368CF8A819B817BD16DD380E048
S11314C001C061CF2F960FB6F894DEBF0FBECDBF1B
S11314D0DF91CF910895CF93DF93CDB7DEB72A97ED
S11314E00FB6F894DEBF0FBECDBF9E838D83788781
S11314F06F835A8749878D819E819B838A831C824F
S11315008A819B81FC01828D8823C9F12F813885D2
S11315108A819B81B901FDD08A819B81FC01828DE6
S11315202FEF280F8A819B81FC01228F8A819B8166
S1131530FC01858D8F3FB1F48A819B81FC018085FC
S11315408823D1F08A819B81089678D58823A1F0DD
S113155089859A85892B81F089859A8521E0FC010A
S113156020830AC08A819B81FC01858D8F5F282F8F
S11315708A819B81FC01258F81E0898301C01982C6
S113158089812A960FB6F894DEBF0FBECDBFDF91D6
S1131590CF910895CF93DF9300D000D0CDB7DEB7BD
S11315A09B838A837D836C834E8319828A819B818A
S11315B0FC01848D882309F498C08E818823D9F591
S11315C08A819B81FC01848D482F50E08A819B8114
S11315D0FC01848195812C813D81B9010E94DD1437
S11315E08A819B81FC01248135818A819B81FC0154
S11315F0848D882F90E0280F391F8A819B81FC01FC
S1131600358324838A819B81FC01248135818A81ED
S11316109B81FC01828193812817390708F465C0F6
S11316208A819B81FC01208131818A819B81FC011B
S1131630358324835AC08A819B81FC01848D482F81
S113164050E08A819B81FC01868197812C813D81B8
S1131650B9010E94DD148A819B81FC0126813781B6
S11316608A819B81FC01848D882F90E091958195DE
S11316709109280F391F8A819B81FC0137832683B6
S11316808A819B81FC01268137818A819B81FC01AF
S11316908081918128173907A8F48A819B81FC01F4
S11316A0228133818A819B81FC01848D882F90E083
S11316B0919581959109280F391F8A819B81FC019D
S11316C0378326838E81823081F48A819B81FC0159
S11316D0828D882351F08A819B81FC01828D2FEFBA
S11316E0280F8A819B81FC01228F8A819B81FC01C6
S11316F0828D21E0280F8A819B81FC01228F8981C0
S113170026960FB6F894DEBF0FBECDBFDF91CF9102
S11317100895CF93DF9300D01F92CDB7DEB79A839D
S113172089837C836B8389819A81FC01848D8823DE
S1131730C9F189819A81FC012681378189819A8145
S1131740FC01848D882F90E0280F391F89819A81AC
S1131750FC013783268389819A81FC0126813781A4
S113176089819A81FC01828193812817390750F07D
S113177089819A81FC012081318189819A81FC01CE
S11317803783268389819A81FC01848D482F50E018
S113179089819A81FC01268137818B819C81B901E1
S11317A00E94DD140F900F900F900F90DF91CF9156
S11317B00895CF93DF931F921F92CDB7DEB79A831C
S11317C089830FB6F8940F9219C089819A81FC011C
S11317D08189882341F089819A8141962FD4882375
S11317E019F01CD501C010C089819A81FC01868D35
S11317F08150282F89819A81FC01268F89819A81C1
S1131800FC01868D18160CF389819A812FEFFC0157
S1131810268F0F900FBE0FB6F8940F9219C08981CE
S11318209A81FC018085882391F089819A810896A8
S113183005D4882309F0F2D489819A81FC01858D2D
S11318408150282F89819A81FC01258F01C006C00F
S113185089819A81FC01858D18160CF389819A81FE
S11318602FEFFC01258F0F900FBE0F900F90DF918B
S1131870CF910895CF93DF9300D0CDB7DEB79B838C
S11318808A830FB6F8940F928A819B81FC01828D22
S1131890882319F481E0898301C019820F900FBE57
S11318A089810F900F900F90DF91CF910895CF937E
S11318B0DF9300D0CDB7DEB79B838A830FB6F8944D
S11318C00F928A819B81FC01228D8A819B81FC017C
S11318D0838D281719F481E0898301C019820F9040
S11318E00FBE89810F900F900F90DF91CF910895D3
S11318F0AF92BF92CF92DF92EF92FF920F931F931A
S1131900CF93DF93CDB7DEB764970FB6F894DEBFFD
S11319100FBECDBF9F838E83798768875B874A8795
S11319203D872C870E87F88AEF86DA8AC98ABC8AB3
S1131930AB8A29893A898A859B85B901C1D59B835C
S11319408A838A819B81892B09F48FC08A819B8138
S1131950FC012789308D8A859B850197820F931F0F
S11319609D838C834A855B852B893C896885798531
S11319708A819B818A014E855BD44C855D852E814D
S11319803F818C819D81B9010E9488039C018A81D9
S11319909B81FC01318320838F859889892B39F0C1
S11319A08F8598892A813B81FC01318320830FB67E
S11319B0F8940F928091470E8F5F8093470E809129
S11319C0F80D9091F90D892B61F48A819B81909394
S11319D0F90D8093F80D8091470E8130A9F4ACD4B1
S11319E013C080914B0E882379F48091F80D909167
S11319F0F90DFC0196898E85891730F08A819B81C7
S1131A009093F90D8093F80D80914F0E8F5F809322
S1131A104F0E8A819B81FC01968980914A0E891719
S1131A2030F48A819B81FC01868980934A0E8A81E5
S1131A309B81AC014E5F5F4F8A819B81FC0186894B
S1131A40282F30E0C901880F991F880F991F880F2C
S1131A50991F820F931F8650924FBA010E94EF0084
S1131A6081E089830F900FBE02C08FEF8983898143
S1131A70813071F480914B0E882351F08091F80DE0
S1131A809091F90DFC0196898E85981708F43CD83D
S1131A90898164960FB6F894DEBF0FBECDBFDF9187
S1131AA0CF911F910F91FF90EF90DF90CF90BF9057
S1131AB0AF900895CF93DF9300D01F921F92CDB7BC
S1131AC0DEB79D838C8319828C819D81892BB9F02B
S1131AD057D02091480E3091490E8C819D81820F00
S1131AE0931F9B838A838091F80D9091F90D029640
S1131AF00E94B3018A819B8198D44ED089838981C5
S1131B00882309F401D80F900F900F900F900F9035
S1131B10DF91CF910895AF92BF92CF92DF92EF926F
S1131B20FF920F93CF93DF931F92CDB7DEB7A12C13
S1131B30B12CC12CD12CE12CF12C00E020E030E0C0
S1131B4049EB50E062E072E082E790E0D1DE898305
S1131B508981813051F4F89481E080934B0E109286
S1131B60490E1092480E0E944C050F90DF91CF91C0
S1131B700F91FF90EF90DF90CF90BF90AF900895BA
S1131B80CF93DF93CDB7DEB78091500E8F5F8093F4
S1131B90500EDF91CF910895CF93DF9300D0CDB74E
S1131BA0DEB719820FB6F8940F928091500E8150CF
S1131BB08093500E8091500E882309F070C080915C
S1131BC0470E882309F46BC049C08091390E909167
S1131BD03A0EFC01868197819B838A838A819B814B
S1131BE00C960E94B3018A819B8102960E94B301E4
S1131BF08A819B81FC01968980914A0E891730F471
S1131C008A819B81FC01868980934A0E8A819B810B
S1131C10AC014E5F5F4F8A819B81FC018689282F2E
S1131C2030E0C901880F991F880F991F880F991FE9
S1131C30820F931F8650924FBA010E94EF008A814F
S1131C409B81FC0126898091F80D9091F90DFC018E
S1131C508689281718F081E080934D0E8091340E08
S1131C60882309F0B2CF80914C0E882381F00BC0F9
S1131C7037D0882319F081E080934D0E80914C0E6B
S1131C80815080934C0E80914C0E882389F780916B
S1131C904D0E813021F481E089830E9484050F90E8
S1131CA00FBE89810F900F900F90DF91CF9108950F
S1131CB0CF93DF931F921F92CDB7DEB70FB6F89480
S1131CC00F928091480E9091490E9A8389830F90C8
S1131CD00FBE89819A810F900F90DF91CF91089563
S1131CE0CF93DF93CDB7DEB729970FB6F894DEBF55
S1131CF00FBECDBF19828091500E882309F0C8C051
S1131D008091480E9091490E01969093490E8093CC
S1131D10480E8091480E9091490E9B838A838A8154
S1131D209B81892BD1F48091300E9091310E9D834B
S1131D308C838091320E9091330E9093310E809368
S1131D40300E8C819D819093330E8093320E80915E
S1131D504E0E8F5F80934E0E0ED4809100029091B0
S1131D6001022A813B812817390708F477C0809142
S1131D70300E9091310EFC018081882339F48FEF6D
S1131D809FEF909301028093000268C08091300E0F
S1131D909091310EFC0185819681FC0186819781A9
S1131DA09F838E838E819F81FC0182819381998799
S1131DB088872A813B81888599852817390738F4D3
S1131DC088859985909301028093000247C08E8193
S1131DD09F8102960E94B3018E819F81FC018489B8
S1131DE09589892B29F08E819F810C960E94B301DD
S1131DF08E819F81FC01968980914A0E891730F467
S1131E008E819F81FC01868980934A0E8E819F81F9
S1131E10AC014E5F5F4F8E819F81FC018689282F24
S1131E2030E0C901880F991F880F991F880F991FE7
S1131E30820F931F8650924FBA010E94EF008E8149
S1131E409F81FC0126898091F80D9091F90DFC0188
S1131E508689281710F081E0898389CF8091F80D55
S1131E609091F90DFC018689282F30E0C901880F73
S1131E70991F880F991F880F991F820F931F8650EF
S1131E80924FFC018081823040F081E0898305C05B
S1131E9080914C0E8F5F80934C0E80914D0E882361
S1131EA011F081E08983898129960FB6F894DEBF09
S1131EB00FBECDBFDF91CF910895CF93DF931F92D3
S1131EC01F92CDB7DEB78091500E882321F081E0B8
S1131ED080934D0E7BC010924D0E8091F80D909121
S1131EE0F90DFC01208131818091F80D9091F90D5B
S1131EF0FC018789908D8217930768F08091F80D13
S1131F009091F90D9C01275E3F4F8091F80D9091BF
S1131F10F90DB90174D405C080914A0E81508093A3
S1131F204A0E80914A0E282F30E0C901880F991F6C
S1131F30880F991F880F991F820F931F8650924F05
S1131F40FC018081882341F380914A0E282F30E0E0
S1131F50C901880F991F880F991F880F991F820F35
S1131F60931F8650924F9A83898389819A81FC01B9
S1131F7081819281FC012281338189819A81FC01D2
S1131F803283218389819A81FC0121813281898173
S1131F909A8103962817390769F489819A81FC018B
S1131FA081819281FC012281338189819A81FC01A2
S1131FB03283218389819A81FC0181819281FC0190
S1131FC0868197819093F90D8093F80D0F900F906F
S1131FD0DF91CF910895CF93DF9300D000D0CDB798
S1131FE0DEB79C838B837E836D838091F80D909103
S1131FF0F90D9C01245F3F4F8B819C81B9010E94A4
S11320003C018091F80D9091F90D02960E94B30164
S11320102091480E3091490E8D819E81820F931F2D
S11320209A83898389819A8100D226960FB6F8947F
S1132030DEBF0FBECDBFDF91CF910895CF93DF9365
S113204000D01F921F92CDB7DEB79D838C838C8105
S11320509D81FC0185819681FC01868197819B830A
S11320608A838A819B810C960E94B3018091500ED1
S1132070882369F58A819B8102960E94B3018A8133
S11320809B81FC01968980914A0E891730F48A81DC
S11320909B81FC01868980934A0E8A819B81AC01D5
S11320A04E5F5F4F8A819B81FC018689282F30E037
S11320B0C901880F991F880F991F880F991F820FD4
S11320C0931F8650924FBA010E94EF0008C08A8184
S11320D09B810C96BC0184E39EE00E94EF008A8100
S11320E09B81FC0126898091F80D9091F90DFC01EA
S11320F08689821730F481E0898381E080934D0ED4
S113210001C0198289810F900F900F900F900F904A
S1132110DF91CF910895CF93DF931F921F92CDB794
S1132120DEB79A83898320914E0E89819A81FC01BE
S113213020832091480E3091490E89819A81FC01B7
S1132140328321830F900F90DF91CF910895CF9325
S1132150DF93CDB7DEB727970FB6F894DEBF0FBE77
S1132160CDBF9D838C837F836E830FB6F8940F92CB
S11321708091480E9091490E9B838A838C819D8126
S1132180FC01908180914E0E981769F08C819D819D
S1132190FC01218132818A819B818217930718F087
S11321A081E089832FC08C819D81FC018181928192
S11321B02A813B81281B390B8E819F81FC01808100
S11321C0918128173907E0F48E819F81FC012081D9
S11321D031818C819D81FC01418152818A819B8165
S11321E0BA01681B790BCB01280F391F8E819F819F
S11321F0FC01318320838C819D818DDF198202C093
S113220081E089830F900FBE898127960FB6F894D9
S1132210DEBF0FBECDBFDF91CF910895CF93DF9383
S1132220CDB7DEB781E080934D0EDF91CF91089555
S11322300F931F93CF93DF93CDB7DEB72A970FB6D3
S1132240F894DEBF0FBECDBF9B838A837D836C83EE
S11322504E8338872F831A870987198222C0898180
S1132260882F90E02981222F30E04C815D81240F5A
S1132270351FF90140812A813B81820F931F4996C2
S1132280FC0140838981882F90E02C813D81820F5D
S1132290931FFC018081882309F406C089818F5F24
S11322A0898389818830D8F28A819B81FC0110A2BC
S11322B08E81843010F083E08E838A819B812E810D
S11322C0FC01268B8A819B8102960E94DD008A8113
S11322D09B810C960E94DD008A819B812A813B812F
S11322E0FC01318720878E81882F90E024E030E044
S11322F0281B390B8A819B81FC01358724878A81BD
S11323009B812A813B81FC01338B228B8A819B81B7
S1132310FC0111A212A213A214A28A819B81FC01C6
S113232015A22A960FB6F894DEBF0FBECDBFDF917B
S1132330CF911F910F910895CF93DF931F92CDB743
S1132340DEB7198213C08981282F30E0C901880FB4
S1132350991F880F991F880F991F820F931F86500A
S1132360924F0E94A70089818F5F8983898184307D
S113237050F38EE19EE00E94A70087E29EE00E9457
S1132380A70084E39EE00E94A7008DE39EE00E94E4
S1132390A7008EE19EE09093310E8093300E87E289
S11323A09EE09093330E8093320E0F90DF91CF9185
S11323B00895CF93DF9300D0CDB7DEB72CC0E0DB18
S11323C090913D0E81E0992309F080E08983E4DB5C
S11323D08981882301F50FB6F8940F928091420EFB
S11323E09091430EFC01868197819B838A838A8125
S11323F09B8102960E94B3018091470E8150809385
S1132400470E8091460E81508093460E0F900FBE6A
S11324108A819B8198D08091460E882381F60F9003
S11324200F900F90DF91CF910895CF93DF931F9278
S11324301F92CDB7DEB79A8389838091F80D90916E
S1132440F90D29813A81FC01338322838091480E5E
S11324509091490E29813A812817390778F480919F
S1132460F80D9091F90D9C012E5F3F4F8091320E33
S11324709091330EB9010E943C011DC08091F80D6A
S11324809091F90D9C012E5F3F4F8091300E9091F9
S1132490310EB9010E943C01809100029091010229
S11324A029813A812817390730F489819A819093D8
S11324B00102809300020F900F90DF91CF91089555
S11324C0CF93DF93CDB7DEB728970FB6F894DEBF6E
S11324D00FBECDBF9E838D8378876F838F81988550
S11324E0892B29F48D819E810E94FB0602C08F8175
S11324F098859C838B838B819C81892BB9F086E2A0
S113250090E00E94FB069A83898389819A81892BB2
S113251041F089819A812B813C81FC01308F278B8A
S113252007C08B819C810E944E0702C01A821982C7
S113253089819A8128960FB6F894DEBF0FBECDBF6D
S1132540DF91CF910895CF93DF931F921F92CDB760
S1132550DEB79A83898389819A81FC018789908D6A
S11325600E944E0789819A810E944E070F900F9016
S1132570DF91CF910895CF93DF931F921F92CDB730
S1132580DEB78091300E9091310EFC01808188235A
S113259039F48FEF9FEF909301028093000215C0EE
S11325A08091300E9091310EFC0185819681FC0161
S11325B0868197819A83898389819A81FC018281AA
S11325C0938190930102809300020F900F90DF910A
S11325D0CF9108951F920F9200905F000F921124E3
S11325E000905B000F922F933F934F935F936F93F1
S11325F07F938F939F93AF93BF93EF93FF93CF9367
S1132600DF93CDB7DEB78091560E9091570E61E5FA
S11326107EE00E94520982E290E022E230E0F90179
S113262020812095FC0120838091510E813011F48A
S11326300E948405DF91CF91FF91EF91BF91AF91FB
S11326409F918F917F916F915F914F913F912F91C6
S11326500F9000925B000F9000925F000F901F900C
S11326601895CF93DF931F921F92CDB7DEB79A834D
S113267089838091560E9091570E20E04FEF5FEFC3
S113268060E070E00E94AD0982E290E022E230E076
S1132690F90120812095FC01208388EE93E00ADA79
S11326A0E8CFAF92BF92CF92DF92EF92FF920F9357
S11326B0CF93DF93CDB7DEB743E060E081E00E94C3
S11326C0EC079093570E8093560E8091560E90917E
S11326D0570E892B59F08091560E9091570E20E099
S11326E040E050E060E070E00E9452088091560E95
S11326F09091570E892B09F440C081E290E02FEFAE
S1132700FC01208382E290E02FEFFC01208384E22D
S113271090E024E230E0F90120812E7FFC01208347
S113272085E290E025E230E0F90120812160FC019E
S1132730208388E690E028E630E0F90120812160DA
S1132740FC0120838BE690E02BE630E0F901208148
S11327502160FC0120837894A12CB12CC12CD12CB4
S1132760E12CF12C02E020E030E048EE53E067E099
S113277072E081E393E1BCD8CED980E090E0DF91B0
S1132780CF910F91FF90EF90DF90CF90BF90AF90DB
S11327900895CF93DF93CDB7DEB70E940603DF9190
S11327A0CF9108951F920F9200905F000F92112411
S11327B000905B000F922F933F938F939F93EF931F
S11327C0FF93CF93DF93CDB7DEB782E290E022E2AE
S11327D030E0F90120812D7FFC012083DF91CF912E
S11327E0FF91EF919F918F913F912F910F900092C4
S11327F05B000F9000925F000F901F901895CF938D
S1132800DF9300D01F92CDB7DEB79A8389837C8390
S11328106B8382E290E022E230E0F90120812068BB
S1132820FC0120830F900F900F900F90DF91CF91B8
S113283008951F920F9200905F000F921124009050
S11328405B000F922F933F934F935F936F937F930C
S11328508F939F93AF93BF93EF93FF93CF93DF93A4
S11328601F921F92CDB7DEB71A8286EC90E0FC016E
S1132870808189838091520E9091530EAE014E5FF8
S11328805F4F20E0BE016F5F7F4F0E94F4088A8192
S1132890882311F00E9484050F900F90DF91CF914F
S11328A0FF91EF91BF91AF919F918F917F916F9124
S11328B05F914F913F912F910F9000925B000F9089
S11328C000925F000F901F9018951F920F92009036
S11328D05F000F92112400905B000F922F933F939F
S11328E04F935F936F937F938F939F93AF93BF9314
S11328F0EF93FF93CF93DF9300D0CDB7DEB78091F2
S1132900540E9091550EAE014D5F5F4F9E012E5FA8
S11329103F4FB9010E946B0A813031F486EC90E09C
S11329202A81FC0120830DC081EC90E0FC018081B0
S1132930898389818F7D898381EC90E02981FC01E1
S113294020830F900F900F90DF91CF91FF91EF9123
S1132950BF91AF919F918F917F916F915F914F91B3
S11329603F912F910F9000925B000F9000925F00B7
S11329700F901F901895A1E21A2EAA1BBB1BFD01F4
S11329800DC0AA1FBB1FEE1FFF1FA217B307E4074A
S1132990F50720F0A21BB30BE40BF50B661F771FA2
S11329A0881F991F1A9469F7609570958095909582
S11329B09B01AC01BD01CF010895FB01DC0102C004
S11329C001900D9241505040D8F70895F894FFCFEC
S11329D0FFFF49444C450048616E646C6572000019
S9030000FC
