:1000000083C00000A2C00000A0C000009EC000008D
:100010009CC000009AC0000098C0000096C000007C
:1000200094C0000092C0000090C000008EC000008C
:100030008CC000008AC0000088C0000086C000009C
:1000400084C0000082C0000080C000007EC00000AC
:100050007CC000007AC0000078C0000076C00000BC
:1000600074C000000C94370E0C94820E6EC0000019
:100070006CC000006AC0000068C0000066C00000DC
:100080003EC6000062C0000060C000005EC000000C
:100090005CC000005AC0000058C0000056C00000FC
:1000A00054C0000052C0000050C000004EC000000C
:1000B0004CC000004AC0000048C0000046C000001C
:1000C00044C0000042C0000040C000003EC000002C
:1000D0003CC000003AC0000038C0000036C000003C
:1000E00034C00000CF93DF931F921F92CDB7DEB7CD
:1000F0009A8389830E94170D8091F20D823008F057
:100100008CD40E94E70DF6CF11241FBECFEFD1E2B1
:10011000DEBFCDBF00E00CBF12E0A0E0B2E0E8E03F
:10012000FEE100E00BBF02C007900D92A830B107BE
:10013000D9F72EE0A8E0B2E001C01D92AD34B207BD
:10014000E1F70E94D80D0C94020F0C94F00DCF93A0
:10015000DF931F921F92CDB7DEB79A83898389817F
:100160009A819C012D5F3F4F89819A81FC013283E6
:10017000218389819A812FEF3FEFFC013483238310
:1001800089819A819C012D5F3F4F89819A81FC0171
:100190003683258389819A819C012D5F3F4F898118
:1001A0009A81FC013087278389819A81FC01108222
:1001B0000F900F90DF91CF910895CF93DF931F920F
:1001C0001F92CDB7DEB79A83898389819A81FC011A
:1001D000118610860F900F90DF91CF910895CF93E5
:1001E000DF9300D000D0CDB7DEB79C838B837E83B6
:1001F0006D838B819C81FC01818192819A838983AB
:100200008D819E8129813A81FC01338322838981FA
:100210009A81FC01248135818D819E81FC01358389
:10022000248389819A81FC01848195812D813E817D
:10023000FC013383228389819A812D813E81FC01D7
:10024000358324838D819E812B813C81FC01318704
:1002500020878B819C81FC01808121E0280F8B818C
:100260009C81FC01208326960FB6F894DEBF0FBE5A
:10027000CDBFDF91CF910895CF93DF9300D01F9230
:10028000CDB7DEB79C838B838B819C81FC018085FD
:1002900091859A8389838B819C81FC0182819381E2
:1002A0002B813C81F90124813581FC013583248334
:1002B0008B819C81FC01848195812B813C81F9019A
:1002C00022813381FC013383228389819A81FC015D
:1002D000218132818B819C812817390751F48B81D0
:1002E0009C81FC012481358189819A81FC013283C2
:1002F00021838B819C81FC011186108689819A81E2
:10030000FC0180812FEF280F89819A81FC012083D5
:1003100089819A81FC0180810F900F900F900F903E
:10032000DF91CF910895CF93DF931F921F92CDB7A6
:10033000DEB739C0F8948091230290912402FC0129
:10034000868197819A83898389819A810C9694DF2B
:10035000789489819A8102968FDF89819A81FC0144
:10036000968980912902891730F489819A81FC014C
:1003700086898093290289819A81AC014E5F5F4F03
:1003800089819A81FC018689282F30E0C901880F74
:10039000991F880F991F880F991F820F931F885FDD
:1003A0009D4FBA011CDF80911E02882309F0C2CF45
:1003B0000F900F90DF91CF910895CF93DF9300D0EE
:1003C0001F92CDB7DEB70E94560A9C0180912C0285
:1003D00090912D02A901481B590BCA0190932F023D
:1003E00080932E0286C080912A0290912B02019662
:1003F00090932B0280932A0280912E0290912F02DB
:10040000019790932F0280932E0280912A0290915F
:100410002B02892BA1F480911A0290911B029A83DE
:10042000898380911C0290911D0290931B028093FE
:100430001A0289819A8190931D0280931C0250C0F8
:1004400080911A0290911B02FC0185819681FC012A
:10045000868197819C838B838B819C81FC01228187
:10046000338180912A0290912B028217930708F41E
:1004700040C0F8948B819C810296FEDE8B819C812A
:10048000FC0184899589892B21F08B819C810C96B4
:10049000F3DE78948B819C81FC01968980912902FE
:1004A000891730F48B819C81FC0186898093290215
:1004B0008B819C81AC014E5F5F4F8B819C81FC01E5
:1004C0008689282F30E0C901880F991F880F991F4E
:1004D000880F991F820F931F885F9D4FBA017FDE9F
:1004E00080911A0290911B02FC018081882309F0FF
:1004F000A7CF80912E0290912F02892B09F073CF04
:1005000080912A0290912B0290932D0280932C02CD
:100510000F900F900F900F90DF91CF910895CF9390
:10052000DF931F921F92CDB7DEB7FDDE46DF0AC014
:1005300080912902882309F46FC08091290281509B
:100540008093290280912902282F30E0C901880F69
:10055000991F880F991F880F991F820F931F885F1B
:100560009D4FFC018081882319F380912902282F57
:1005700030E0C901880F991F880F991F880F991FB4
:10058000820F931F885F9D4F9A83898389819A8107
:10059000FC0181819281FC012281338189819A81D0
:1005A000FC013283218389819A81FC01218132817E
:1005B00089819A8103962817390769F489819A817C
:1005C000FC0181819281FC012281338189819A81A0
:1005D000FC013283218389819A81FC01818192818E
:1005E000FC01868197819093280280932702809155
:1005F000270290912802FC012081318180912702FD
:1006000090912802FC01478980912702909128024D
:10061000642FF901199500000F900F90DF91CF9191
:100620000895CF93DF93CDB7DEB728970FB6F89430
:10063000DEBF0FBECDBF9C838B837E836D835887C7
:100640004F838B819C8121E1FC0120838B819C81E4
:1006500001979C838B838B819C8122E2FC01208308
:100660008B819C8101979C838B838B819C8123E36D
:10067000FC0120838B819C8101979C838B838D81DE
:100680009E819A83898329818B819C81FC012083AF
:100690008B819C8101979C838B8389819A81892F8F
:1006A00099279A83898329818B819C81FC012083EE
:1006B0008B819C8101979C838B838B819C81FC0126
:1006C00010828B819C8101979C838B838B819C8181
:1006D000FC0110828B819C8101979C838B838B8191
:1006E0009C8120E8FC0120838B819C8101979C8365
:1006F0008B838B819C81FC0110828B819C81019773
:100700009C838B838B819C81FC0110828B819C81DB
:1007100001979C838B838B819C81FC0110828B8150
:100720009C8101979C838B838B819C8122E0FC01BF
:1007300020838B819C8101979C838B838B819C81FF
:1007400023E0FC0120838B819C8101979C838B8318
:100750008B819C8124E0FC0120838B819C8101970B
:100760009C838B838B819C8125E0FC0120838B8182
:100770009C8101979C838B838B819C8126E0FC016B
:1007800020838B819C8101979C838B838B819C81AF
:1007900027E0FC0120838B819C8101979C838B83C4
:1007A0008B819C8128E0FC0120838B819C810197B7
:1007B0009C838B838B819C8129E0FC0120838B812E
:1007C0009C8101979C838B838B819C8120E1FC0120
:1007D00020838B819C8101979C838B838B819C815F
:1007E00021E1FC0120838B819C8101979C838B8379
:1007F0008B819C8122E1FC0120838B819C8101976C
:100800009C838B838B819C8123E1FC0120838B81E2
:100810009C8101979C838B838B819C8124E1FC01CB
:1008200020838B819C8101979C838B838B819C810E
:1008300025E1FC0120838B819C8101979C838B8324
:100840008B819C8126E1FC0120838B819C81019717
:100850009C838B838B819C8127E1FC0120838B818E
:100860009C8101979C838B838B819C8128E1FC0177
:1008700020838B819C8101979C838B838B819C81BE
:1008800029E1FC0120838B819C8101979C838B83D0
:100890008B819C8120E2FC0120838B819C810197CC
:1008A0009C838B838B819C8121E2FC0120838B8143
:1008B0009C8101979C838B838B819C8122E2FC012C
:1008C00020838B819C8101979C838B838B819C816E
:1008D00023E2FC0120838B819C8101979C838B8385
:1008E0008F8198859A83898329818B819C81FC01E2
:1008F00020838B819C8101979C838B8389819A8142
:10090000892F99279A83898329818B819C81FC0176
:1009100020838B819C8101979C838B838B819C811D
:1009200026E2FC0120838B819C8101979C838B8331
:100930008B819C8127E2FC0120838B819C81019724
:100940009C838B838B819C8128E2FC0120838B819B
:100950009C8101979C838B838B819C8129E2FC0184
:1009600020838B819C8101979C838B838B819C81CD
:1009700020E3FC0120838B819C8101979C838B83E6
:100980008B819C8121E3FC0120838B819C810197D9
:100990009C838B838B819C8128960FB6F894DEBF55
:1009A0000FBECDBFDF91CF910895CF93DF93CDB729
:1009B000DEB70DD1A091F00DB091F10DCD91CDBF6D
:1009C000DD91DEBFFF91EF91DF91CF91BF91AF91AC
:1009D0009F918F917F916F915F914F913F912F9157
:1009E0001F910F91FF90EF90DF90CF90BF90AF904D
:1009F0009F908F907F906F905F904F903F902F903F
:100A00001F900F900CBE0F900BBE0F900FBE0F905B
:100A1000089581E0DF91CF9108950F920FB6F89479
:100A20000F920BB60F920CB60F921F9211242F92B9
:100A30003F924F925F926F927F928F929F92AF926E
:100A4000BF92CF92DF92EF92FF920F931F932F935B
:100A50003F934F935F936F937F938F939F93AF9346
:100A6000BF93CF93DF93EF93FF93A091F00DB091DD
:100A7000F10D0DB60D920EB60D921DD6A091F00D92
:100A8000B091F10DCD91CDBFDD91DEBFFF91EF9122
:100A9000DF91CF91BF91AF919F918F917F916F9196
:100AA0005F914F913F912F911F910F91FF90EF9088
:100AB000DF90CF90BF90AF909F908F907F906F907E
:100AC0005F904F903F902F901F900F900CBE0F9013
:100AD0000BBE0F900FBE0F9008950F920FB6F894B3
:100AE0000F920BB60F920CB60F921F9211242F92F9
:100AF0003F924F925F926F927F928F929F92AF92AE
:100B0000BF92CF92DF92EF92FF920F931F932F939A
:100B10003F934F935F936F937F938F939F93AF9385
:100B2000BF93CF93DF93EF93FF93A091F00DB0911C
:100B3000F10D0DB60D920EB60D928091320290918C
:100B400033020197909333028093320280913202F4
:100B500090913302892B41F48091300290913102BF
:100B60009093330280933202B9D4882309F0A3D53D
:100B7000A091F00DB091F10DCD91CDBFDD91DEBF13
:100B8000FF91EF91DF91CF91BF91AF919F918F91A5
:100B90007F916F915F914F913F912F911F910F9195
:100BA000FF90EF90DF90CF90BF90AF909F908F908D
:100BB0007F906F905F904F903F902F901F900F907D
:100BC0000CBE0F900BBE0F900FBE0F900895CF93E9
:100BD000DF93CDB7DEB72A970FB6F894DEBF0FBE0E
:100BE000CDBF80E197E2A0E0B0E089839A83AB8338
:100BF000BC8389819A81AB81BC81689415F8B695D4
:100C0000A795979587951694D1F789839A83AB8397
:100C1000BC8389819A81AB81BC81880F991FAA1FEF
:100C2000BB1F880F991FAA1FBB1F880F991FAA1FE0
:100C3000BB1F880F991FAA1FBB1F880F991FAA1FD0
:100C4000BB1F880F991FAA1FBB1F9C01AD0180E825
:100C500096E9A8E9B0E0BC01CD010E94D70EDA0107
:100C6000C9019093310280933002809130029091BB
:100C70003102909333028093320289819A81AB8151
:100C8000BC810197A109B10989839A83AB83BC8395
:100C900089818D8389819A81AB81BC81892F9A2F2B
:100CA000AB2FBB2789839A83AB83BC8389818E83D7
:100CB00089E990E02E81FC01208388E990E02D8174
:100CC000FC0120838BE08D8381E990E02D81FC0184
:100CD000208381E790E0FC0180818D838D8182609B
:100CE0008D8381E790E02D81FC0120832A960FB649
:100CF000F894DEBF0FBECDBFDF91CF910895EDDE3A
:100D00001895CF93DF9300D01F92CDB7DEB79C83A9
:100D10008B831A82198233D38091EE0D9091EF0D5F
:100D2000892B31F485E392E09093EF0D8093EE0DE3
:100D30002091EC0D3091ED0D8B819C81820F931FE2
:100D4000873B9B4038F52091EC0D3091ED0D8B8168
:100D50009C81280F391F8091EC0D9091ED0D821729
:100D60009307C0F42091EE0D3091EF0D8091EC0DC2
:100D70009091ED0D820F931F9A8389832091EC0D42
:100D80003091ED0D8B819C81820F931F9093ED0D1F
:100D90008093EC0D00D389819A810F900F900F9072
:100DA0000F90DF91CF910895CF93DF931F921F9201
:100DB000CDB7DEB79A8389830F900F90DF91CF91E3
:100DC0000895CF93DF93CDB7DEB72B970FB6F89486
:100DD000DEBF0FBECDBF9E838D8378876F835A871A
:100DE00049872B878D819E819B838A831C828A8180
:100DF0009B81FC01228D8A819B81FC01838D2817B8
:100E000018F08B85823081F52F8138858A819B810E
:100E10004B85B90193D08A819B81FC01868D8F3FE0
:100E2000B1F48A819B81FC0181898823D1F08A8178
:100E30009B814196CED48823A1F089859A85892B00
:100E400081F089859A8521E0FC0120830AC08A818E
:100E50009B81FC01868D8F5F282F8A819B81FC01FD
:100E6000268F81E0898301C0198289812B960FB674
:100E7000F894DEBF0FBECDBFDF91CF910895CF9321
:100E8000DF93CDB7DEB72A970FB6F894DEBF0FBE5B
:100E9000CDBF9E838D8378876F835A8749878D81E5
:100EA0009E819B838A831C828A819B81FC01828D27
:100EB0008823C9F12F8138858A819B81B901FBD0B4
:100EC0008A819B81FC01828D2FEF280F8A819B8173
:100ED000FC01228F8A819B81FC01858D8F3FB1F4BB
:100EE0008A819B81FC0180858823D1F08A819B8146
:100EF00008966FD48823A1F089859A85892B81F083
:100F000089859A8521E0FC0120830AC08A819B8122
:100F1000FC01858D8F5F282F8A819B81FC01258FA5
:100F200081E0898301C0198289812A960FB6F894DD
:100F3000DEBF0FBECDBFDF91CF910895CF93DF937A
:100F400000D000D0CDB7DEB79B838A837D836C83CE
:100F50004E8319828A819B81FC01848D882309F448
:100F600096C08E818823D1F58A819B81FC01848D76
:100F7000482F50E08A819B81FC01848195812C81DE
:100F80003D81B90136D78A819B81FC01248135815D
:100F90008A819B81FC01848D882F90E0280F391F66
:100FA0008A819B81FC01358324838A819B81FC019A
:100FB000248135818A819B81FC018281938128175C
:100FC000390708F464C08A819B81FC01208131814A
:100FD0008A819B81FC013583248359C08A819B814E
:100FE000FC01848D482F50E08A819B81FC01868121
:100FF00097812C813D81B901FCD68A819B81FC01BE
:10100000268137818A819B81FC01848D882F90E025
:10101000919581959109280F391F8A819B81FC0147
:10102000378326838A819B81FC01268137818A81CF
:101030009B81FC018081918128173907A8F48A815E
:101040009B81FC01228133818A819B81FC01848DFB
:10105000882F90E0919581959109280F391F8A81F9
:101060009B81FC01378326838E81823081F48A81C3
:101070009B81FC01828D882351F08A819B81FC0138
:10108000828D2FEF280F8A819B81FC01228F8A811C
:101090009B81FC01828D21E0280F8A819B81FC01CC
:1010A000228F898126960FB6F894DEBF0FBECDBF82
:1010B000DF91CF910895CF93DF9300D01F92CDB7EA
:1010C000DEB79A8389837C836B8389819A81FC0153
:1010D000848D8823C1F189819A81FC012681378121
:1010E00089819A81FC01848D882F90E0280F391F17
:1010F00089819A81FC013783268389819A81FC0149
:101100002681378189819A81FC0182819381281708
:10111000390750F089819A81FC01208131818981D0
:101120009A81FC013783268389819A81FC01848D11
:10113000482F50E089819A81FC01268137818B817B
:101140009C81B90156D60F900F900F900F90DF91B0
:10115000CF910895AF92BF92CF92DF92EF92FF921C
:101160000F931F93CF93DF93CDB7DEB764970FB67E
:10117000F894DEBF0FBECDBF9F838E8379876887CB
:101180005B874A873D872C870E87F88AEF86DA8A45
:10119000C98ABC8AAB8A29893A898A859B85B90123
:1011A00082D49B838A838A819B81892B09F48EC098
:1011B0008A819B81FC012789308D8A859B850197D7
:1011C000820F931F9D838C834A855B852B893C8985
:1011D000688579858A819B818A014E8567D34C8594
:1011E0005D852E813F818C819D81B9011ADA9C0138
:1011F0008A819B81FC01318320838F859889892B8B
:1012000039F08F8598892A813B81FC0131832083C5
:101210000FB6F8940F9280913F0E8F5F80933F0E30
:101220008091F00D9091F10D892B61F48A819B8161
:101230009093F10D8093F00D80913F0E8130A9F4D1
:10124000B9D313C08091430E882379F48091F00DB7
:101250009091F10DFC0196898E85891730F08A8175
:101260009B819093F10D8093F00D8091470E8F5FDD
:101270008093470E8A819B81FC0196898091420E62
:10128000891730F48A819B81FC0186898093420E04
:101290008A819B81AC014E5F5F4F8A819B81FC01FB
:1012A0008689282F30E0C901880F991F880F991F60
:1012B000880F991F820F931F8E50924FBA010E9480
:1012C000EF0081E089830F900FBE02C08FEF89830A
:1012D0008981813071F48091430E882351F080918F
:1012E000F00D9091F10DFC0196898E85981708F408
:1012F00094DB898164960FB6F894DEBF0FBECDBF34
:10130000DF91CF911F910F91FF90EF90DF90CF90E1
:10131000BF90AF900895AF92BF92CF92DF92EF92BD
:10132000FF920F93CF93DF931F92CDB7DEB7A12C1F
:10133000B12CC12CD12CE12CF12C00E020E030E0CC
:1013400049EB50E062E072E082E790E003DF8983DE
:101350008981813049F4F89481E08093430E1092A2
:10136000410E1092400E21DB0F90DF91CF910F9133
:10137000FF90EF90DF90CF90BF90AF900895CF9304
:10138000DF93CDB7DEB78091480E8F5F8093480E14
:10139000DF91CF910895CF93DF9300D0CDB7DEB723
:1013A00019820FB6F8940F928091480E8150809365
:1013B000480E8091480E882309F06FC080913F0E3F
:1013C000882309F46AC049C08091310E9091320E91
:1013D000FC01868197819B838A838A819B810C96FD
:1013E0000E943C018A819B8102960E943C018A8175
:1013F0009B81FC0196898091420E891730F48A8185
:101400009B81FC0186898093420E8A819B81AC017D
:101410004E5F5F4F8A819B81FC018689282F30E0D7
:10142000C901880F991F880F991F880F991F820F74
:10143000931F8E50924FBA010E94EF008A819B81C8
:10144000FC0126898091F00D9091F10DFC018689B7
:10145000281718F081E08093450E80912C0E882388
:1014600009F0B2CF8091440E882381F00BC036D0B2
:10147000882319F081E08093450E8091440E8150BD
:101480008093440E8091440E882389F78091450E05
:10149000813019F481E08983C0DA0F900FBE898111
:1014A0000F900F900F90DF91CF910895CF93DF931E
:1014B0001F921F92CDB7DEB70FB6F8940F928091AE
:1014C000400E9091410E9A8389830F900FBE8981BF
:1014D0009A810F900F90DF91CF910895CF93DF9372
:1014E000CDB7DEB729970FB6F894DEBF0FBECDBFDC
:1014F00019828091480E882309F0C8C08091400E5F
:101500009091410E01969093410E8093400E8091F0
:10151000400E9091410E9B838A838A819B81892B07
:10152000D1F48091280E9091290E9D838C83809117
:101530002A0E90912B0E9093290E8093280E8C8169
:101540009D8190932B0E80932A0E8091460E8F5F83
:101550008093460EFED280910002909101022A8172
:101560003B812817390708F477C08091280E9091A5
:10157000290EFC018081882339F48FEF9FEF90932F
:1015800001028093000268C08091280E9091290E7C
:10159000FC0185819681FC01868197819F838E83E2
:1015A0008E819F81FC0182819381998788872A811E
:1015B0003B81888599852817390738F4888599856E
:1015C000909301028093000247C08E819F81029612
:1015D0000E943C018E819F81FC0184899589892B21
:1015E00029F08E819F810C960E943C018E819F8103
:1015F000FC0196898091420E891730F48E819F817B
:10160000FC0186898093420E8E819F81AC014E5FE2
:101610005F4F8E819F81FC018689282F30E0C901B0
:10162000880F991F880F991F880F991F820F931F8A
:101630008E50924FBA010E94EF008E819F81FC0173
:1016400026898091F00D9091F10DFC018689281773
:1016500010F081E0898389CF8091F00D9091F10D98
:10166000FC018689282F30E0C901880F991F880F57
:10167000991F880F991F820F931F8E50924FFC0164
:101680008081823040F081E0898305C08091440EE2
:101690008F5F8093440E8091450E882311F081E086
:1016A0008983898129960FB6F894DEBF0FBECDBF1E
:1016B000DF91CF910895CF93DF931F921F92CDB703
:1016C000DEB78091480E882321F081E08093450E9B
:1016D0007BC01092450E8091F00D9091F10DFC01B0
:1016E000208131818091F00D9091F10DFC0187896D
:1016F000908D8217930768F08091F00D9091F10D15
:101700009C01275E3F4F8091F00D9091F10DB90142
:1017100094D205C08091420E81508093420E8091F8
:10172000420E282F30E0C901880F991F880F991F9A
:10173000880F991F820F931F8E50924FFC0180815A
:10174000882341F38091420E282F30E0C901880F91
:10175000991F880F991F880F991F820F931F8E5012
:10176000924F9A83898389819A81FC018181928138
:10177000FC012281338189819A81FC01328321839A
:1017800089819A81FC012181328189819A81039624
:101790002817390769F489819A81FC018181928136
:1017A000FC012281338189819A81FC01328321836A
:1017B00089819A81FC0181819281FC0186819781D6
:1017C0009093F10D8093F00D0F900F90DF91CF91DA
:1017D0000895CF93DF9300D01F921F92CDB7DEB74D
:1017E0009D838C838C819D81FC0185819681FC0188
:1017F000868197819B838A838A819B810C960E9434
:101800003C018091480E882369F58A819B8102966C
:101810000E943C018A819B81FC0196898091420E45
:10182000891730F48A819B81FC0186898093420E5E
:101830008A819B81AC014E5F5F4F8A819B81FC0155
:101840008689282F30E0C901880F991F880F991FBA
:10185000880F991F820F931F8E50924FBA010E94DA
:10186000EF0008C08A819B810C96BC018CE29EE04F
:101870000E94EF008A819B81FC0126898091F00DF6
:101880009091F10DFC018689821730F481E0898303
:1018900081E08093450E01C0198289810F900F90DD
:1018A0000F900F900F90DF91CF9108950F931F939A
:1018B000CF93DF93CDB7DEB72A970FB6F894DEBF8C
:1018C0000FBECDBF9B838A837D836C834E83388715
:1018D0002F831A870987198222C08981882F90E077
:1018E0002981222F30E04C815D81240F351FF901C1
:1018F00040812A813B81820F931F4996FC014083DE
:101900008981882F90E02C813D81820F931FFC01FB
:101910008081882309F406C089818F5F898389814A
:101920008830D8F28A819B81FC0110A28E8184309C
:1019300010F083E08E838A819B812E81FC01268BAF
:101940008A819B8102960E94DD008A819B810C9690
:101950000E94DD008A819B812A813B81FC013187C5
:1019600020878E81882F90E024E030E0281B390BFF
:101970008A819B81FC01358724878A819B812A810A
:101980003B81FC01338B228B8A819B81FC0111A25C
:1019900012A213A214A28A819B81FC0115A22A968D
:1019A0000FB6F894DEBF0FBECDBFDF91CF911F9170
:1019B0000F910895CF93DF931F92CDB7DEB71982B1
:1019C00013C08981282F30E0C901880F991F880F23
:1019D000991F880F991F820F931F8E50924F0E945C
:1019E000A70089818F5F89838981843050F386E1E4
:1019F0009EE00E94A7008FE19EE00E94A7008CE27B
:101A00009EE00E94A70085E39EE00E94A70086E179
:101A10009EE09093290E8093280E8FE19EE0909394
:101A20002B0E80932A0E0F90DF91CF910895CF93C4
:101A3000DF9300D0CDB7DEB72CC0A1DC9091350E7E
:101A400081E0992309F080E08983A5DC89818823DE
:101A500001F50FB6F8940F9280913A0E90913B0EDB
:101A6000FC01868197819B838A838A819B81029670
:101A70000E943C0180913F0E815080933F0E8091E7
:101A80003E0E815080933E0E0F900FBE8A819B8147
:101A90004AD080913E0E882381F60F900F900F90D0
:101AA000DF91CF910895CF93DF93CDB7DEB728971D
:101AB0000FB6F894DEBF0FBECDBF9E838D837887AF
:101AC0006F838F819885892B21F48D819E8119D90F
:101AD00002C08F8198859C838B838B819C81892B0D
:101AE000A9F086E290E00DD99A83898389819A8151
:101AF000892B41F089819A812B813C81FC01308FB7
:101B0000278B06C08B819C814FD902C01A82198213
:101B100089819A8128960FB6F894DEBF0FBECDBF9B
:101B2000DF91CF910895CF93DF931F921F92CDB78E
:101B3000DEB79A83898389819A81FC018789908D98
:101B400033D989819A8130D90F900F90DF91CF914D
:101B50000895CF93DF931F921F92CDB7DEB7809188
:101B6000280E9091290EFC018081882339F48FEF93
:101B70009FEF909301028093000215C08091280E80
:101B80009091290EFC0185819681FC0186819781C7
:101B90009A83898389819A81FC01828193819093C0
:101BA0000102809300020F900F90DF91CF91089572
:101BB000CF93DF93CDB7DEB781E290E02FEFFC014A
:101BC0002083A9DB80E090E0DF91CF910895CF934F
:101BD000DF93CDB7DEB70E948F02DF91CF910895DA
:101BE0001F920F9200905F000F92112400905B00F3
:101BF0000F922F933F938F939F93EF93FF93CF93E6
:101C0000DF93CDB7DEB782E290E022E230E0F90167
:101C100020812D7FFC012083DF91CF91FF91EF91F7
:101C20009F918F913F912F910F9000925B000F90A9
:101C300000925F000F901F901895CF93DF9300D014
:101C40001F92CDB7DEB79A8389837C836B8382E250
:101C500090E022E230E0F90120812068FC0120833D
:101C60000F900F900F900F90DF91CF9108951F92DA
:101C70000F9200905F000F92112400905B000F9272
:101C80002F933F934F935F936F937F938F939F9384
:101C9000AF93BF93EF93FF93CF93DF931F921F9266
:101CA000CDB7DEB71A8286EC90E0FC018081898393
:101CB0008091490E90914A0EAE014E5F5F4F20E039
:101CC000BE016F5F7F4F7DD88A81882311F00E940B
:101CD0000D050F900F90DF91CF91FF91EF91BF9184
:101CE000AF919F918F917F916F915F914F913F91B4
:101CF0002F910F9000925B000F9000925F000F9069
:101D00001F9018951F920F9200905F000F92112460
:101D100000905B000F922F933F934F935F936F93CD
:101D20007F938F939F93AF93BF93EF93FF93CF9343
:101D3000DF9300D0CDB7DEB780914B0E90914C0E63
:101D4000AE014D5F5F4F9E012E5F3F4FB90197D8A7
:101D5000813031F486EC90E02A81FC0120830DC0B3
:101D600081EC90E0FC018081898389818F7D89836A
:101D700081EC90E02981FC0120830F900F900F905F
:101D8000DF91CF91FF91EF91BF91AF919F918F9193
:101D90007F916F915F914F913F912F910F900092A2
:101DA0005B000F9000925F000F901F901895A1E2CA
:101DB0001A2EAA1BBB1BFD010DC0AA1FBB1FEE1FC5
:101DC000FF1FA217B307E407F50720F0A21BB30B10
:101DD000E40BF50B661F771F881F991F1A9469F78C
:101DE00060957095809590959B01AC01BD01CF01E8
:101DF0000895FB01DC0102C001900D92415050405A
:081E0000D8F70895F894FFCF14
:081E0800FFFF49444C450000B6
:00000001FF
