:020000020000FC
:100000000FEF01B904B92A980E94380008E30E9452
:1000100019000E9438000EE00E94190001E00E94C1
:1000200019000E94380006E00E94190008E40E94AE
:10003000230002B9289829982A9A0E942D002A980C
:100040000E943000089502B9289A29982A9A0E949D
:100050002D002A980E9430000895000000000895A5
:100060001F931CE30E942D001A95E1F71F9108953C
:100070001F9314E10E9430001A95E1F71F91089533
:00000001FF
