:1000000083C00000A2C00000A0C000009EC000008D
:100010009CC000009AC0000098C0000096C000007C
:1000200094C0000092C0000090C000008EC000008C
:100030008CC000008AC0000088C0000086C000009C
:1000400084C0000082C0000080C000007EC00000AC
:100050007CC000007AC0000078C0000076C00000BC
:1000600074C000000C941B100C9467106EC000004C
:100070006CC000006AC0000068C0000066C00000DC
:10008000B5C6000062C0000060C000005EC0000095
:100090005CC000005AC0000058C0000056C00000FC
:1000A00054C0000052C0000050C000004EC000000C
:1000B0004CC000004AC0000048C0000046C000001C
:1000C00044C0000042C0000040C000003EC000002C
:1000D0003CC000003AC0000038C0000036C000003C
:1000E00034C00000CF93DF931F921F92CDB7DEB7CD
:1000F0009A8389830E94C10D8091000E823008F09E
:1001000003D50E94CB0FF6CF11241FBECFEFD1E253
:10011000DEBFCDBF00E00CBF12E0A0E0B2E0E4ED36
:10012000F1E200E00BBF02C007900D92A631B107CB
:10013000D9F72EE0A6E1B2E001C01D92A83CB207BB
:10014000E1F70E948A0F0C94E8100C94D40FCF931F
:10015000DF931F921F92CDB7DEB79A83898389817F
:100160009A819C012D5F3F4F89819A81FC013283E6
:10017000218389819A812FEF3FEFFC013483238310
:1001800089819A819C012D5F3F4F89819A81FC0171
:100190003683258389819A819C012D5F3F4F898118
:1001A0009A81FC013087278389819A81FC01108222
:1001B0000F900F90DF91CF910895CF93DF931F920F
:1001C0001F92CDB7DEB79A83898389819A81FC011A
:1001D000118610860F900F90DF91CF910895CF93E5
:1001E000DF9300D000D0CDB7DEB79C838B837E83B6
:1001F0006D838B819C81FC01818192819A838983AB
:100200008D819E8129813A81FC01338322838981FA
:100210009A81FC01248135818D819E81FC01358389
:10022000248389819A81FC01848195812D813E817D
:10023000FC013383228389819A812D813E81FC01D7
:10024000358324838D819E812B813C81FC01318704
:1002500020878B819C81FC01808121E0280F8B818C
:100260009C81FC01208326960FB6F894DEBF0FBE5A
:10027000CDBFDF91CF910895CF93DF93CDB7DEB798
:1002800028970FB6F894DEBF0FBECDBF9E838D8337
:1002900078876F838F819885FC01808191819C8311
:1002A0008B838B819C81019641F48D819E81FC0121
:1002B000878190859A8389831AC08D819E81039658
:1002C0009A83898307C089819A81FC018281938105
:1002D0009A83898389819A81FC0182819381FC01BF
:1002E000208131818B819C818217930760F78981FE
:1002F0009A81FC01228133818F819885FC013383AF
:1003000022838F819885FC01828193812F8138859A
:10031000FC01358324838F81988529813A81FC01F2
:100320003583248389819A812F813885FC01338329
:1003300022838F8198852D813E81FC013187208722
:100340008D819E81FC01808121E0280F8D819E811D
:10035000FC01208328960FB6F894DEBF0FBECDBFF8
:10036000DF91CF910895CF93DF9300D01F92CDB747
:10037000DEB79C838B838B819C81FC01808591857A
:100380009A8389838B819C81FC01828193812B815B
:100390003C81F90124813581FC01358324838B81E3
:1003A0009C81FC01848195812B813C81F901228112
:1003B0003381FC013383228389819A81FC0121816D
:1003C00032818B819C812817390751F48B819C8164
:1003D000FC012481358189819A81FC01328321834A
:1003E0008B819C81FC011186108689819A81FC0198
:1003F00080812FEF280F89819A81FC0120838981D8
:100400009A81FC0180810F900F900F900F90DF91E7
:10041000CF910895CF93DF931F921F92CDB7DEB790
:1004200039C0F8948091310290913202FC018681AA
:1004300097819A83898389819A810C9694DF789435
:1004400089819A8102968FDF89819A81FC01968940
:1004500080913702891730F489819A81FC0186895D
:100460008093370289819A81AC014E5F5F4F898109
:100470009A81FC018689282F30E0C901880F991FD5
:10048000880F991F880F991F820F931F8A5E9D4FB7
:10049000BA01A5DE80912C02882309F0C2CF0F900B
:1004A0000F90DF91CF910895CF93DF9300D01F92EB
:1004B000CDB7DEB70E94000B9C0180913A0290916B
:1004C0003B02A901481B590BCA0190933D0280933E
:1004D0003C0286C080913802909139020196909337
:1004E00039028093380280913C0290913D0201973D
:1004F00090933D0280933C028091380290913902A2
:10050000892BA1F480912802909129029A838983F2
:1005100080912A0290912B029093290280932802C5
:1005200089819A8190932B0280932A0250C08091F6
:10053000280290912902FC0185819681FC01868127
:1005400097819C838B838B819C81FC0122813381E9
:1005500080913802909139028217930708F440C0C5
:10056000F8948B819C810296FEDE8B819C81FC013C
:1005700084899589892B21F08B819C810C96F3DEEF
:1005800078948B819C81FC01968980913702891730
:1005900030F48B819C81FC018689809337028B81AA
:1005A0009C81AC014E5F5F4F8B819C81FC018689F1
:1005B000282F30E0C901880F991F880F991F880FD5
:1005C000991F820F931F8A5E9D4FBA0108DE8091AA
:1005D000280290912902FC018081882309F0A7CF8D
:1005E00080913C0290913D02892B09F073CF80915C
:1005F00038029091390290933B0280933A020F9017
:100600000F900F900F90DF91CF910895CF93DF93CC
:100610001F921F92CDB7DEB7FDDE46DF0AC0809184
:100620003702882309F46FC080913702815080938C
:10063000370280913702282F30E0C901880F991FB7
:10064000880F991F880F991F820F931F8A5E9D4FF5
:10065000FC018081882319F380913702282F30E034
:10066000C901880F991F880F991F880F991F820F42
:10067000931F8A5E9D4F9A83898389819A81FC01A9
:1006800081819281FC012281338189819A81FC01DF
:100690003283218389819A81FC0121813281898180
:1006A0009A8103962817390769F489819A81FC0198
:1006B00081819281FC012281338189819A81FC01AF
:1006C0003283218389819A81FC0181819281FC019D
:1006D000868197819093360280933502809135020E
:1006E00090913602FC0120813181809135029091F8
:1006F0003602FC0147898091350290913602642FC1
:10070000F901199500000F900F90DF91CF91089596
:10071000CF93DF93CDB7DEB728970FB6F894DEBF3F
:100720000FBECDBF9C838B837E836D8358874F83A1
:100730008B819C8121E1FC0120838B819C8101972D
:100740009C838B838B819C8122E2FC0120838B81A3
:100750009C8101979C838B838B819C8123E3FC018B
:1007600020838B819C8101979C838B838D819E81CB
:100770009A83898329818B819C81FC0120838B81D1
:100780009C8101979C838B8389819A81892F9927EA
:100790009A83898329818B819C81FC0120838B81B1
:1007A0009C8101979C838B838B819C81FC011082AF
:1007B0008B819C8101979C838B838B819C81FC0125
:1007C00010828B819C8101979C838B838B819C8180
:1007D00020E8FC0120838B819C8101979C838B8383
:1007E0008B819C81FC0110828B819C8101979C8371
:1007F0008B838B819C81FC0110828B819C81019772
:100800009C838B838B819C81FC0110828B819C81DA
:1008100001979C838B838B819C8122E0FC01208348
:100820008B819C8101979C838B838B819C8123E0AE
:10083000FC0120838B819C8101979C838B838B811E
:100840009C8124E0FC0120838B819C8101979C8307
:100850008B838B819C8125E0FC0120838B819C8193
:1008600001979C838B838B819C8126E0FC012083F4
:100870008B819C8101979C838B838B819C8127E05A
:10088000FC0120838B819C8101979C838B838B81CE
:100890009C8128E0FC0120838B819C8101979C83B3
:1008A0008B838B819C8129E0FC0120838B819C813F
:1008B00001979C838B838B819C8120E1FC012083A9
:1008C0008B819C8101979C838B838B819C8121E10F
:1008D000FC0120838B819C8101979C838B838B817E
:1008E0009C8122E1FC0120838B819C8101979C8368
:1008F0008B838B819C8123E1FC0120838B819C81F4
:1009000001979C838B838B819C8124E1FC01208354
:100910008B819C8101979C838B838B819C8125E1BA
:10092000FC0120838B819C8101979C838B838B812D
:100930009C8126E1FC0120838B819C8101979C8313
:100940008B838B819C8127E1FC0120838B819C819F
:1009500001979C838B838B819C8128E1FC01208300
:100960008B819C8101979C838B838B819C8129E166
:10097000FC0120838B819C8101979C838B838B81DD
:100980009C8120E2FC0120838B819C8101979C83C8
:100990008B838B819C8121E2FC0120838B819C8154
:1009A00001979C838B838B819C8122E2FC012083B5
:1009B0008B819C8101979C838B838B819C8123E21B
:1009C000FC0120838B819C8101979C838B838F8189
:1009D00098859A83898329818B819C81FC0120835E
:1009E0008B819C8101979C838B8389819A81892F3C
:1009F00099279A83898329818B819C81FC0120839B
:100A00008B819C8101979C838B838B819C8126E2C7
:100A1000FC0120838B819C8101979C838B838B813C
:100A20009C8127E2FC0120838B819C8101979C8320
:100A30008B838B819C8128E2FC0120838B819C81AC
:100A400001979C838B838B819C8129E2FC0120830D
:100A50008B819C8101979C838B838B819C8120E37C
:100A6000FC0120838B819C8101979C838B838B81EC
:100A70009C8121E3FC0120838B819C8101979C83D5
:100A80008B838B819C8128960FB6F894DEBF0FBEB6
:100A9000CDBFDF91CF910895CF93DF93CDB7DEB770
:100AA0000DD1A091FE0DB091FF0DCD91CDBFDD9187
:100AB000DEBFFF91EF91DF91CF91BF91AF919F91F9
:100AC0008F917F916F915F914F913F912F911F91E6
:100AD0000F91FF90EF90DF90CF90BF90AF909F90DD
:100AE0008F907F906F905F904F903F902F901F90CE
:100AF0000F900CBE0F900BBE0F900FBE0F9008957D
:100B000081E0DF91CF9108950F920FB6F8940F9284
:100B10000BB60F920CB60F921F9211242F923F9298
:100B20004F925F926F927F928F929F92AF92BF92FD
:100B3000CF92DF92EF92FF920F931F932F933F93E9
:100B40004F935F936F937F938F939F93AF93BF93D5
:100B5000CF93DF93EF93FF93A091FE0DB091FF0D24
:100B60000DB60D920EB60D9250D6A091FE0DB0911D
:100B7000FF0DCD91CDBFDD91DEBFFF91EF91DF91F4
:100B8000CF91BF91AF919F918F917F916F915F9125
:100B90004F913F912F911F910F91FF90EF90DF9018
:100BA000CF90BF90AF909F908F907F906F905F900D
:100BB0004F903F902F901F900F900CBE0F900BBE48
:100BC0000F900FBE0F9008950F920FB6F8940F92EA
:100BD0000BB60F920CB60F921F9211242F923F92D8
:100BE0004F925F926F927F928F929F92AF92BF923D
:100BF000CF92DF92EF92FF920F931F932F933F9329
:100C00004F935F936F937F938F939F93AF93BF9314
:100C1000CF93DF93EF93FF93A091FE0DB091FF0D63
:100C20000DB60D920EB60D92809140029091410248
:100C300001979093410280934002809140029091ED
:100C40004102892B41F480913E0290913F029093A2
:100C5000410280934002ECD4882309F0D6D5A091BC
:100C6000FE0DB091FF0DCD91CDBFDD91DEBFFF91A7
:100C7000EF91DF91CF91BF91AF919F918F917F9134
:100C80006F915F914F913F912F911F910F91FF9025
:100C9000EF90DF90CF90BF90AF909F908F907F901C
:100CA0006F905F904F903F902F901F900F900CBED1
:100CB0000F900BBE0F900FBE0F900895CF93DF9350
:100CC000CDB7DEB72A970FB6F894DEBF0FBECDBF03
:100CD00080E197E2A0E0B0E089839A83AB83BC8394
:100CE00089819A81AB81BC81689415F8B695A795E6
:100CF000979587951694D1F789839A83AB83BC83A4
:100D000089819A81AB81BC81880F991FAA1FBB1F63
:100D1000880F991FAA1FBB1F880F991FAA1FBB1FEF
:100D2000880F991FAA1FBB1F880F991FAA1FBB1FDF
:100D3000880F991FAA1FBB1F9C01AD0180E896E98F
:100D4000A8E9B0E0BC01CD010E94BD10DA01C901E3
:100D500090933F0280933E0280913E0290913F0229
:100D6000909341028093400289819A81AB81BC813A
:100D70000197A109B10989839A83AB83BC838981D7
:100D80008D8389819A81AB81BC81892F9A2FAB2F6A
:100D9000BB2789839A83AB83BC8389818E8389E94E
:100DA00090E02E81FC01208388E990E02D81FC01F8
:100DB00020838BE08D8381E990E02D81FC012083ED
:100DC00081E790E0FC0180818D838D8182608D833D
:100DD00081E790E02D81FC0120832A960FB6F894DC
:100DE000DEBF0FBECDBFDF91CF910895EDDE189528
:100DF000CF93DF9300D01F92CDB7DEB79C838B8358
:100E00001A82198266D38091FC0D9091FD0D892B79
:100E100031F483E492E09093FD0D8093FC0D2091DA
:100E2000FA0D3091FB0D8B819C81820F931F873BC4
:100E30009B4038F52091FA0D3091FB0D8B819C8100
:100E4000280F391F8091FA0D9091FB0D821793079F
:100E5000C0F42091FC0D3091FD0D8091FA0D909120
:100E6000FB0D820F931F9A8389832091FA0D309195
:100E7000FB0D8B819C81820F931F9093FB0D8093C0
:100E8000FA0D33D389819A810F900F900F900F90B4
:100E9000DF91CF910895CF93DF931F921F92CDB72B
:100EA000DEB79A8389830F900F90DF91CF910895D9
:100EB000CF93DF93CDB7DEB72B970FB6F894DEBF95
:100EC0000FBECDBF9E838D8378876F835A874987F6
:100ED0002B878D819E819B838A831C828A819B8143
:100EE000FC01228D8A819B81FC01838D281718F0DB
:100EF0008B85823081F52F8138858A819B814B8556
:100F0000B90193D08A819B81FC01868D8F3FB1F41A
:100F10008A819B81FC0181898823D1F08A819B8110
:100F2000419601D58823A1F089859A85892B81F086
:100F300089859A8521E0FC0120830AC08A819B81F2
:100F4000FC01868D8F5F282F8A819B81FC01268F73
:100F500081E0898301C0198289812B960FB6F894AC
:100F6000DEBF0FBECDBFDF91CF910895CF93DF934A
:100F7000CDB7DEB72A970FB6F894DEBF0FBECDBF50
:100F80009E838D8378876F835A8749878D819E8161
:100F90009B838A831C828A819B81FC01828D8823AA
:100FA000C9F12F8138858A819B81B901FDD08A8161
:100FB0009B81FC01828D2FEF280F8A819B81FC0190
:100FC000228F8A819B81FC01858D8F3FB1F48A81BC
:100FD0009B81FC0180858823D1F08A819B810896C2
:100FE000A2D48823A1F089859A85892B81F08985EF
:100FF0009A8521E0FC0120830AC08A819B81FC0143
:10100000858D8F5F282F8A819B81FC01258F81E050
:10101000898301C0198289812A960FB6F894DEBFB0
:101020000FBECDBFDF91CF910895CF93DF9300D056
:1010300000D0CDB7DEB79B838A837D836C834E83DC
:1010400019828A819B81FC01848D882309F498C0D0
:101050008E818823D9F58A819B81FC01848D482F5C
:1010600050E08A819B81FC01848195812C813D81A6
:10107000B9010E94DF108A819B81FC0124813581A6
:101080008A819B81FC01848D882F90E0280F391F75
:101090008A819B81FC01358324838A819B81FC01A9
:1010A000248135818A819B81FC018281938128176B
:1010B000390708F465C08A819B81FC012081318158
:1010C0008A819B81FC01358324835AC08A819B815C
:1010D000FC01848D482F50E08A819B81FC01868130
:1010E00097812C813D81B9010E94DF108A819B810B
:1010F000FC01268137818A819B81FC01848D882FA8
:1011000090E0919581959109280F391F8A819B81E3
:10111000FC01378326838A819B81FC0126813781EC
:101120008A819B81FC018081918128173907A8F46D
:101130008A819B81FC01228133818A819B81FC0110
:10114000848D882F90E0919581959109280F391F02
:101150008A819B81FC01378326838E81823081F4D2
:101160008A819B81FC01828D882351F08A819B8139
:10117000FC01828D2FEF280F8A819B81FC01228F39
:101180008A819B81FC01828D21E0280F8A819B81CD
:10119000FC01228F898126960FB6F894DEBF0FBE20
:1011A000CDBFDF91CF910895CF93DF9300D01F92F1
:1011B000CDB7DEB79A8389837C836B8389819A81DB
:1011C000FC01848D8823C1F189819A81FC012681EB
:1011D000378189819A81FC01848D882F90E0280FC6
:1011E000391F89819A81FC013783268389819A81FD
:1011F000FC012681378189819A81FC01828193815A
:101200002817390750F089819A81FC0120813181AA
:1012100089819A81FC013783268389819A81FC0127
:10122000848D482F50E089819A81FC012681378185
:101230008B819C81B901C3D70F900F900F900F90B5
:10124000DF91CF910895AF92BF92CF92DF92EF924C
:10125000FF920F931F93CF93DF93CDB7DEB76497C1
:101260000FB6F894DEBF0FBECDBF9F838E83798704
:1012700068875B874A873D872C870E87F88AEF86C9
:10128000DA8AC98ABC8AAB8A29893A898A859B8588
:10129000B901FED49B838A838A819B81892B09F4BF
:1012A0008EC08A819B81FC012789308D8A859B8530
:1012B0000197820F931F9D838C834A855B852B89C1
:1012C0003C89688579858A819B818A014E8598D37E
:1012D0004C855D852E813F818C819D81B90118DA15
:1012E0009C018A819B81FC01318320838F859889B1
:1012F000892B39F08F8598892A813B81FC013183C4
:1013000020830FB6F8940F9280914D0E8F5F8093DB
:101310004D0E8091FE0D9091FF0D892B61F48A8115
:101320009B819093FF0D8093FE0D80914D0E813037
:10133000A9F4EAD313C08091510E882379F48091E7
:10134000FE0D9091FF0DFC0196898E85891730F076
:101350008A819B819093FF0D8093FE0D8091550EA5
:101360008F5F8093550E8A819B81FC0196898091C5
:10137000500E891730F48A819B81FC018689809305
:10138000500E8A819B81AC014E5F5F4F8A819B81A9
:10139000FC018689282F30E0C901880F991F880F2A
:1013A000991F880F991F820F931F8050924FBA0187
:1013B0000E94EF0081E089830F900FBE02C08FEF83
:1013C00089838981813071F48091510E882351F095
:1013D0008091FE0D9091FF0DFC0196898E859817E6
:1013E00008F492DB898164960FB6F894DEBF0FBED5
:1013F000CDBFDF91CF911F910F91FF90EF90DF90C4
:10140000CF90BF90AF900895CF93DF9300D01F92FD
:101410001F92CDB7DEB79D838C8319828C819D810D
:10142000892BB9F056D020914E0E30914F0E8C8101
:101430009D81820F931F9B838A838091FE0D9091E3
:10144000FF0D02960E94B3018A819B81D6D34DD0B5
:1014500089838981882309F457DB0F900F900F90BF
:101460000F900F90DF91CF910895AF92BF92CF92DE
:10147000DF92EF92FF920F93CF93DF931F92CDB73E
:10148000DEB7A12CB12CC12CD12CE12CF12C00E029
:1014900020E030E049EB50E062E072E082E790E06B
:1014A000D2DE89838981813049F4F89481E0809388
:1014B000510E10924F0E10924E0EEEDA0F90DF91F9
:1014C000CF910F91FF90EF90DF90CF90BF90AF90B2
:1014D0000895CF93DF93CDB7DEB78091560E8F5F1F
:1014E0008093560EDF91CF910895CF93DF9300D074
:1014F000CDB7DEB719820FB6F8940F928091560ED1
:1015000081508093560E8091560E882309F06FC04B
:1015100080914D0E882309F46AC049C080913F0E26
:101520009091400EFC01868197819B838A838A81FA
:101530009B810C960E94B3018A819B8102960E9436
:10154000B3018A819B81FC0196898091500E891795
:1015500030F48A819B81FC0186898093500E8A81B8
:101560009B81AC014E5F5F4F8A819B81FC01868924
:10157000282F30E0C901880F991F880F991F880F05
:10158000991F820F931F8050924FBA010E94EF0063
:101590008A819B81FC0126898091FE0D9091FF0D2F
:1015A000FC018689281718F081E08093530E809102
:1015B0003A0E882309F0B2CF8091520E882381F031
:1015C0000BC036D0882319F081E08093530E8091B0
:1015D000520E81508093520E8091520E882389F7CB
:1015E0008091530E813019F481E089838DDA0F9058
:1015F0000FBE89810F900F900F90DF91CF910895CA
:10160000CF93DF931F921F92CDB7DEB70FB6F8943A
:101610000F9280914E0E90914F0E9A8389830F9076
:101620000FBE89819A810F900F90DF91CF9108951D
:10163000CF93DF93CDB7DEB729970FB6F894DEBF0F
:101640000FBECDBF19828091560E882309F0C8C005
:1016500080914E0E90914F0E019690934F0E809375
:101660004E0E80914E0E90914F0E9B838A838A81FD
:101670009B81892BD1F48091360E9091370E9D83FA
:101680008C838091380E9091390E9093370E809311
:10169000360E8C819D819093390E8093380E809107
:1016A000540E8F5F8093540E49D380910002909125
:1016B00001022A813B812817390708F477C08091FD
:1016C000360E9091370EFC018081882339F48FEF1C
:1016D0009FEF909301028093000268C08091360EC4
:1016E0009091370EFC0185819681FC01868197815E
:1016F0009F838E838E819F81FC0182819381998754
:1017000088872A813B81888599852817390738F48D
:1017100088859985909301028093000247C08E814D
:101720009F8102960E94B3018E819F81FC01848972
:101730009589892B29F08E819F810C960E94B30197
:101740008E819F81FC0196898091500E891730F41B
:101750008E819F81FC0186898093500E8E819F81AE
:10176000AC014E5F5F4F8E819F81FC018689282FDF
:1017700030E0C901880F991F880F991F880F991FA2
:10178000820F931F8050924FBA010E94EF008E810A
:101790009F81FC0126898091FE0D9091FF0DFC0137
:1017A0008689281710F081E0898389CF8091FE0D0A
:1017B0009091FF0DFC018689282F30E0C901880F28
:1017C000991F880F991F880F991F820F931F8050B0
:1017D000924FFC018081823040F081E0898305C016
:1017E0008091520E8F5F8093520E8091530E88230A
:1017F00011F081E08983898129960FB6F894DEBFC4
:101800000FBECDBFDF91CF910895CF93DF931F928D
:101810001F92CDB7DEB78091560E882321F081E06C
:101820008093530E7BC01092530E8091FE0D9091C9
:10183000FF0DFC01208131818091FE0D9091FF0D03
:10184000FC018789908D8217930768F08091FE0DC7
:101850009091FF0D9C01275E3F4F8091FE0D90916E
:10186000FF0DB901CED305C08091500E81508093F9
:10187000500E8091500E282F30E0C901880F991F1B
:10188000880F991F880F991F820F931F8050924FC6
:10189000FC018081882341F38091500E282F30E095
:1018A000C901880F991F880F991F880F991F820FF0
:1018B000931F8050924F9A83898389819A81FC017A
:1018C00081819281FC012281338189819A81FC018D
:1018D0003283218389819A81FC012181328189812E
:1018E0009A8103962817390769F489819A81FC0146
:1018F00081819281FC012281338189819A81FC015D
:101900003283218389819A81FC0181819281FC014A
:10191000868197819093FF0D8093FE0D0F900F901D
:10192000DF91CF910895CF93DF9300D01F921F9244
:10193000CDB7DEB79D838C838C819D81FC01858131
:101940009681FC01868197819B838A838A819B8112
:101950000C960E94B3018091560E882369F58A8106
:101960009B8102960E94B3018A819B81FC0196892A
:101970008091500E891730F48A819B81FC01868901
:101980008093500E8A819B81AC014E5F5F4F8A81AC
:101990009B81FC018689282F30E0C901880F991F9F
:1019A000880F991F880F991F820F931F8050924FA5
:1019B000BA010E94EF0008C08A819B810C96BC018D
:1019C0008AE39EE00E94EF008A819B81FC012689C8
:1019D0008091FE0D9091FF0DFC018689821730F4F5
:1019E00081E0898381E08093530E01C0198289814F
:1019F0000F900F900F900F900F90DF91CF9108955F
:101A00000F931F93CF93DF93CDB7DEB72A970FB60F
:101A1000F894DEBF0FBECDBF9B838A837D836C832A
:101A20004E8338872F831A870987198222C08981BC
:101A3000882F90E02981222F30E04C815D81240F96
:101A4000351FF90140812A813B81820F931F4996FE
:101A5000FC0140838981882F90E02C813D81820F99
:101A6000931FFC018081882309F406C089818F5F60
:101A7000898389818830D8F28A819B81FC0110A2F8
:101A80008E81843010F083E08E838A819B812E8149
:101A9000FC01268B8A819B8102960E94DD008A814F
:101AA0009B810C960E94DD008A819B812A813B816B
:101AB000FC01318720878E81882F90E024E030E080
:101AC000281B390B8A819B81FC01358724878A81F9
:101AD0009B812A813B81FC01338B228B8A819B81F4
:101AE000FC0111A212A213A214A28A819B81FC0103
:101AF00015A22A960FB6F894DEBF0FBECDBFDF91B8
:101B0000CF911F910F910895CF93DF931F92CDB77F
:101B1000DEB7198213C08981282F30E0C901880FF0
:101B2000991F880F991F880F991F820F931F80504C
:101B3000924F0E94A70089818F5F898389818430B9
:101B400050F384E29EE00E94A7008DE29EE00E9496
:101B5000A7008AE39EE00E94A70083E49EE00E9423
:101B6000A70084E29EE09093370E8093360E8DE2BC
:101B70009EE09093390E8093380E0F90DF91CF91B5
:101B80000895CF93DF9300D0CDB7DEB72CC0A1DC92
:101B90009091430E81E0992309F080E08983A5DCD0
:101BA0008981882301F50FB6F8940F928091480E31
:101BB0009091490EFC01868197819B838A838A815B
:101BC0009B8102960E94B30180914D0E81508093BB
:101BD0004D0E80914C0E815080934C0E0F900FBE95
:101BE0008A819B8195D080914C0E882381F60F903D
:101BF0000F900F90DF91CF910895CF93DF931F92B5
:101C00001F92CDB7DEB79A8389838091FE0D9091A4
:101C1000FF0D29813A81FC013383228380914E0E8E
:101C200090914F0E29813A812817390778F48091D5
:101C3000FE0D9091FF0D9C012E5F3F4F8091380E5D
:101C40009091390EB9010E943C011DC08091FE0D9A
:101C50009091FF0D9C012E5F3F4F8091360E909129
:101C6000370EB9010E943C0180910002909101025F
:101C700029813A812817390730F489819A81909314
:101C80000102809300020F900F90DF91CF91089591
:101C9000CF93DF93CDB7DEB728970FB6F894DEBFAA
:101CA0000FBECDBF9E838D8378876F838F8198858C
:101CB000892B21F48D819E819BD802C08F819885CC
:101CC0009C838B838B819C81892BA9F086E290E099
:101CD0008FD89A83898389819A81892B41F0898160
:101CE0009A812B813C81FC01308F278B06C08B8130
:101CF0009C81D1D802C01A82198289819A81289642
:101D00000FB6F894DEBF0FBECDBFDF91CF9108951F
:101D1000CF93DF931F921F92CDB7DEB79A8389834B
:101D200089819A81FC018789908DB5D889819A81B2
:101D3000B2D80F900F90DF91CF910895CF93DF939A
:101D40001F921F92CDB7DEB78091360E9091370E5D
:101D5000FC018081882339F48FEF9FEF909301027B
:101D60008093000215C08091360E9091370EFC01D1
:101D700085819681FC01868197819A8389838981F7
:101D80009A81FC01828193819093010280930002E9
:101D90000F900F90DF91CF910895CF93DF9300D0F4
:101DA0001F92CDB7DEB72CDC9A8389838981877037
:101DB0008B838B81282F30E081E090E002C0880F78
:101DC000991F2A95E2F78C838C810F900F900F90CA
:101DD0000F90DF91CF910895CF93DF931F92CDB7EE
:101DE000DEB789838091570E91E0980F9093570E3C
:101DF000882F90E08E59914F2981FC0120830F900C
:101E0000DF91CF910895CF93DF9300D000D0CDB76D
:101E1000DEB79E838D831A82198212C01C821B82B8
:101E200005C08B819C8101969C838B838B819C81D7
:101E3000843F9140B4F389819A8101969A83898382
:101E400029813A818D819E81281739073CF3269696
:101E50000FB6F894DEBF0FBECDBFDF91CF910895CE
:101E6000CF93DF93CDB7DEB781E090E0DF91CF91E4
:101E70000895CF93DF9300D01F92CDB7DEB79C8338
:101E80008B83EEDF892BA1F182E290E02FEFFC0142
:101E9000208388EE93E0B7DF80DF9EDF1A8219820D
:101EA0001BC082E290E029813A812E59314FF9011D
:101EB00020812095FC01208384EF91E0A4DF82E261
:101EC00090E02FEFFC01208384EF91E09CDF89817B
:101ED0009A8101969A8389838091570E282F30E04A
:101EE00089819A8182179307E4F288EB9BE08CDA70
:101EF000C8CFCF93DF931F921F92CDB7DEB79A83DF
:101F0000898382E290E023E230E0F9012081FC0144
:101F10002083F7CFAF92BF92CF92DF92EF92FF92E2
:101F20000F93CF93DF93CDB7DEB781E290E02FEF31
:101F3000FC01208384E290E0FC011082A12CB12CF2
:101F4000C12CD12CE12CF12C03E020E030E049EB56
:101F500050E067E072E089E39FE075D9A12CB12CD5
:101F6000C12CD12CE12CF12C02E020E030E049EB37
:101F700050E06EE072E089E79FE065D976DA80E0B4
:101F800090E0DF91CF910F91FF90EF90DF90CF9095
:101F9000BF90AF900895CF93DF93CDB7DEB70E9487
:101FA0000603DF91CF9108951F920F9200905F007A
:101FB0000F92112400905B000F922F933F938F9309
:101FC0009F93EF93FF93CF93DF93CDB7DEB782E27A
:101FD00090E022E230E0F90120812D7FFC01208396
:101FE000DF91CF91FF91EF919F918F913F912F9131
:101FF0000F9000925B000F9000925F000F901F9077
:102000001895CF93DF9300D01F92CDB7DEB79A8398
:1020100089837C836B8382E290E022E230E0F901E5
:1020200020812068FC0120830F900F900F900F906B
:10203000DF91CF9108951F920F9200905F000F9251
:10204000112400905B000F922F933F934F935F9367
:102050006F937F938F939F93AF93BF93EF93FF9370
:10206000CF93DF931F921F92CDB7DEB71A8286EC13
:1020700090E0FC01808189838091580E9091590EE7
:10208000AE014E5F5F4F20E0BE016F5F7F4F0E9449
:1020900058078A81882311F00E9484050F900F90C1
:1020A000DF91CF91FF91EF91BF91AF919F918F9170
:1020B0007F916F915F914F913F912F910F9000927F
:1020C0005B000F9000925F000F901F9018951F9279
:1020D0000F9200905F000F92112400905B000F920E
:1020E0002F933F934F935F936F937F938F939F9320
:1020F000AF93BF93EF93FF93CF93DF9300D0CDB710
:10210000DEB780915A0E90915B0EAE014D5F5F4F2E
:102110009E012E5F3F4FB9010E94B607813031F416
:1021200086EC90E02A81FC0120830DC081EC90E0D8
:10213000FC018081898389818F7D898381EC90E096
:102140002981FC0120830F900F900F90DF91CF9198
:10215000FF91EF91BF91AF919F918F917F916F917F
:102160005F914F913F912F910F9000925B000F90E4
:1021700000925F000F901F901895A1E21A2EAA1BE3
:10218000BB1BFD010DC0AA1FBB1FEE1FFF1FA21727
:10219000B307E407F50720F0A21BB30BE40BF50B24
:1021A000661F771F881F991F1A9469F760957095AD
:1021B000809590959B01AC01BD01CF010895FB0175
:1021C000DC0102C001900D9241505040D8F70895B3
:0421D000F894FFCFB1
:1021D400FFFF49444C45005461736B203100546146
:0621E400736B20320000C5
:00000001FF
