S01500004672656552544F535F564941322E73726563D4
S11300008DC00000ACC00000AAC00000A8C0000061
S1130010A6C00000A4C00000A2C00000A0C0000050
S11300209EC000009CC000009AC0000098C0000060
S113003096C0000094C0000092C0000090C0000070
S11300408EC000008CC000008AC0000088C0000080
S113005086C0000084C0000082C0000080C0000090
S11300607EC000000C94E2190C942E1A78C0000093
S113007076C0000074C0000072C0000070C00000B0
S1130080C2C600006CC000006AC0000068C0000066
S113009066C0000064C0000062C0000060C00000D0
S11300A05EC000005CC000005AC0000058C00000E0
S11300B056C0000054C0000052C0000050C00000F0
S11300C04EC000004CC000004AC0000048C0000000
S11300D046C0000044C0000042C0000040C0000010
S11300E03EC00000541654165416AF168E16A916A8
S11300F054165416AF168E16CF93DF931F921F9289
S1130100CDB7DEB79A8389830E947F1280913A0C1F
S1130110823008F003D50E949219F6CF11241FBE35
S1130120CFEFD1E2DEBFCDBF00E00CBF12E0A0E014
S1130130B2E0E2E7F5E300E00BBF02C007900D92E6
S1130140A434B107D9F72CE0A4E4B2E001C01D92B5
S1130150AB3BB207E1F70E94E7180C94B71A0C9472
S11301609B19CF93DF931F921F92CDB7DEB79A836B
S1130170898389819A819C012D5F3F4F89819A816E
S1130180FC013283218389819A812FEF3FEFFC01A7
S11301903483238389819A819C012D5F3F4F898118
S11301A09A81FC013683258389819A819C012D5F84
S11301B03F4F89819A81FC013087278389819A8105
S11301C0FC0110820F900F90DF91CF910895CF938F
S11301D0DF931F921F92CDB7DEB79A8389838981FB
S11301E09A81FC01118610860F900F90DF91CF91B8
S11301F00895CF93DF9300D000D0CDB7DEB79C83B2
S11302008B837E836D838B819C81FC0181819281B0
S11302109A8389838D819E8129813A81FC0133836C
S1130220228389819A81FC01248135818D819E817B
S1130230FC013583248389819A81FC018481958121
S11302402D813E81FC013383228389819A812D8112
S11302503E81FC01358324838D819E812B813C81E9
S1130260FC01318720878B819C81FC01808121E006
S1130270280F8B819C81FC01208326960FB6F8946D
S1130280DEBF0FBECDBFDF91CF910895CF93DF9333
S1130290CDB7DEB728970FB6F894DEBF0FBECDBF3B
S11302A09E838D8378876F838F819885FC018081FD
S11302B091819C838B838B819C81019641F48D81F8
S11302C09E81FC01878190859A8389831AC08D81E0
S11302D09E8103969A83898307C089819A81FC0150
S11302E0828193819A83898389819A81FC018281A5
S11302F09381FC01208131818B819C81821793073A
S113030060F789819A81FC01228133818F819885EC
S1130310FC01338322838F819885FC018281938140
S11303202F813885FC01358324838F819885298129
S11303303A81FC013583248389819A812F81388510
S1130340FC01338322838F8198852D813E81FC01BA
S1130350318720878D819E81FC01808121E0280FD7
S11303608D819E81FC01208328960FB6F894DEBF10
S11303700FBECDBFDF91CF910895CF93DF9300D00F
S11303801F92CDB7DEB79C838B838B819C81FC014C
S1130390808591859A8389838B819C81FC018281EC
S11303A093812B813C81F90124813581FC013583C2
S11303B024838B819C81FC01848195812B813C81E8
S11303C0F90122813381FC013383228389819A815B
S11303D0FC01218132818B819C812817390751F4DA
S11303E08B819C81FC012481358189819A81FC0166
S11303F0328321838B819C81FC0111861086898143
S11304009A81FC0180812FEF280F89819A81FC0158
S1130410208389819A81FC0180810F900F900F9035
S11304200F90DF91CF910895CF93DF931F921F9286
S1130430CDB7DEB739C0F89480915F029091600225
S1130440FC01868197819A83898389819A810C969C
S113045094DF789489819A8102968FDF89819A81C9
S1130460FC01968980916502891730F489819A810B
S1130470FC0186898093650289819A81AC014E5F73
S11304805F4F89819A81FC018689282F30E0C90158
S1130490880F991F880F991F880F991F820F931F28
S11304A08C5B9D4FBA01A5DE80915A02882309F026
S11304B0C2CF0F900F90DF91CF910895CF93DF9328
S11304C000D01F92CDB7DEB70E94CA0E9C01809166
S11304D0680290916902A901481B590BCA019093C3
S11304E06B0280936A0286C08091660290916702D3
S11304F00196909367028093660280916A029091BC
S11305006B02019790936B0280936A02809166025A
S113051090916702892BA1F4809156029091570221
S11305209A8389838091580290915902909357023B
S11305308093560289819A8190935902809358023C
S113054050C08091560290915702FC01858196819A
S1130550FC01868197819C838B838B819C81FC0128
S113056022813381809166029091670282179307FA
S113057008F440C0F8948B819C810296FEDE8B8146
S11305809C81FC0184899589892B21F08B819C8134
S11305900C96F3DE78948B819C81FC019689809182
S11305A06502891730F48B819C81FC0186898093D4
S11305B065028B819C81AC014E5F5F4F8B819C8176
S11305C0FC018689282F30E0C901880F991F880F04
S11305D0991F880F991F820F931F8C5B9D4FBA013F
S11305E008DE8091560290915702FC018081882395
S11305F009F0A7CF80916A0290916B02892B09F0D0
S113060073CF809166029091670290936902809300
S113061068020F900F900F900F90DF91CF91089583
S1130620CF93DF931F921F92CDB7DEB7FDDE46DF77
S11306300AC080916502882309F46FC08091650225
S113064081508093650280916502282F30E0C901B2
S1130650880F991F880F991F880F991F820F931F66
S11306608C5B9D4FFC018081882319F38091650286
S1130670282F30E0C901880F991F880F991F880F10
S1130680991F820F931F8C5B9D4F9A838983898165
S11306909A81FC0181819281FC01228133818981CB
S11306A09A81FC013283218389819A81FC01218111
S11306B0328189819A8103962817390769F48981DF
S11306C09A81FC0181819281FC012281338189819B
S11306D09A81FC013283218389819A81FC01818181
S11306E09281FC01868197819093640280936302D6
S11306F08091630290916402FC0120813181809198
S1130700630290916402FC01478980916302909195
S11307106402642FF901199500000F900F90DF9186
S1130720CF910895CF93DF93CDB7DEB728970FB657
S1130730F894DEBF0FBECDBF9C838B837E836D8315
S113074058874F838B819C8121E1FC0120838B811D
S11307509C8101979C838B838B819C8122E2FC0189
S113076020838B819C8101979C838B838B819C81CB
S113077023E3FC0120838B819C8101979C838B83E1
S11307808D819E819A83898329818B819C81FC013F
S113079020838B819C8101979C838B8389819A819F
S11307A0892F99279A83898329818B819C81FC01D4
S11307B020838B819C8101979C838B838B819C817B
S11307C0FC0110828B819C8101979C838B838B819C
S11307D09C81FC0110828B819C8101979C838B837B
S11307E08B819C8120E8FC0120838B819C81019773
S11307F09C838B838B819C81FC0110828B819C81E7
S113080001979C838B838B819C81FC0110828B815B
S11308109C8101979C838B838B819C81FC0110823A
S11308208B819C8101979C838B838B819C8122E0AB
S1130830FC0120838B819C8101979C838B838B811A
S11308409C8123E0FC0120838B819C8101979C8304
S11308508B838B819C8124E0FC0120838B819C8190
S113086001979C838B838B819C8125E0FC012083F1
S11308708B819C8101979C838B838B819C8126E057
S1130880FC0120838B819C8101979C838B838B81CA
S11308909C8127E0FC0120838B819C8101979C83B0
S11308A08B838B819C8128E0FC0120838B819C813C
S11308B001979C838B838B819C8129E0FC0120839D
S11308C08B819C8101979C838B838B819C8120E10C
S11308D0FC0120838B819C8101979C838B838B817A
S11308E09C8121E1FC0120838B819C8101979C8365
S11308F08B838B819C8122E1FC0120838B819C81F1
S113090001979C838B838B819C8123E1FC01208351
S11309108B819C8101979C838B838B819C8124E1B7
S1130920FC0120838B819C8101979C838B838B8129
S11309309C8125E1FC0120838B819C8101979C8310
S11309408B838B819C8126E1FC0120838B819C819C
S113095001979C838B838B819C8127E1FC012083FD
S11309608B819C8101979C838B838B819C8128E163
S1130970FC0120838B819C8101979C838B838B81D9
S11309809C8129E1FC0120838B819C8101979C83BC
S11309908B838B819C8120E2FC0120838B819C8151
S11309A001979C838B838B819C8121E2FC012083B2
S11309B08B819C8101979C838B838B819C8122E218
S11309C0FC0120838B819C8101979C838B838B8189
S11309D09C8123E2FC0120838B819C8101979C8371
S11309E08B838F8198859A83898329818B819C81CC
S11309F0FC0120838B819C8101979C838B8389815B
S1130A009A81892F99279A83898329818B819C8153
S1130A10FC0120838B819C8101979C838B838B8138
S1130A209C8126E2FC0120838B819C8101979C831D
S1130A308B838B819C8127E2FC0120838B819C81A9
S1130A4001979C838B838B819C8128E2FC0120830A
S1130A508B819C8101979C838B838B819C8129E270
S1130A60FC0120838B819C8101979C838B838B81E8
S1130A709C8120E3FC0120838B819C8101979C83D2
S1130A808B838B819C8121E3FC0120838B819C815E
S1130A9001979C838B838B819C8128960FB6F89455
S1130AA0DEBF0FBECDBFDF91CF910895CF93DF930B
S1130AB0CDB7DEB710D1A091380CB091390CCD91DF
S1130AC0CDBFDD91DEBFFF91EF91DF91CF91BF915B
S1130AD0AF919F918F917F916F915F914F913F91D2
S1130AE02F911F910F91FF90EF90DF90CF90BF90C7
S1130AF0AF909F908F907F906F905F904F903F90BA
S1130B002F901F900F900CBE0F900BBE0F900FBE36
S1130B100F90089581E0DF91CF9108950F920FB661
S1130B20F8940F920BB60F920CB60F921F921124E9
S1130B302F923F924F925F926F927F928F929F92E9
S1130B40AF92BF92CF92DF92EF92FF920F931F93D7
S1130B502F933F934F935F936F937F938F939F93C1
S1130B60AF93BF93CF93DF93EF93FF93A091380C90
S1130B70B091390C0DB60D920EB60D920E94CF0FA6
S1130B80A091380CB091390CCD91CDBFDD91DEBF71
S1130B90FF91EF91DF91CF91BF91AF919F918F9191
S1130BA07F916F915F914F913F912F911F910F9181
S1130BB0FF90EF90DF90CF90BF90AF909F908F9079
S1130BC07F906F905F904F903F902F901F900F9069
S1130BD00CBE0F900BBE0F900FBE0F9008950F9296
S1130BE00FB6F8940F920BB60F920CB60F921F9299
S1130BF011242F923F924F925F926F927F928F9225
S1130C009F92AF92BF92CF92DF92EF92FF920F9397
S1130C101F932F933F934F935F936F937F938F9380
S1130C209F93AF93BF93CF93DF93EF93FF93A091E1
S1130C30380CB091390C0DB60D920EB60D92809110
S1130C406E0290916F02019790936F0280936E02EF
S1130C5080916E0290916F02892B41F480916C0215
S1130C6090916D0290936F0280936E020E94E20E47
S1130C70882311F00E94CF0FA091380CB091390C49
S1130C80CD91CDBFDD91DEBFFF91EF91DF91CF918B
S1130C90BF91AF919F918F917F916F915F914F9190
S1130CA03F912F911F910F91FF90EF90DF90CF9084
S1130CB0BF90AF909F908F907F906F905F904F9078
S1130CC03F902F901F900F900CBE0F900BBE0F9073
S1130CD00FBE0F900895CF93DF93CDB7DEB72A9759
S1130CE00FB6F894DEBF0FBECDBF80E197E2A0E05F
S1130CF0B0E089839A83AB83BC8389819A81AB8179
S1130D00BC81689415F8B695A79597958795169420
S1130D10D1F789839A83AB83BC8389819A81AB8120
S1130D20BC81880F991FAA1FBB1F880F991FAA1F78
S1130D30BB1F880F991FAA1FBB1F880F991FAA1FCB
S1130D40BB1F880F991FAA1FBB1F880F991FAA1FBB
S1130D50BB1F9C01AD0180E896E9A8E9B0E0BC01A5
S1130D60CD010E94841ADA01C90190936D02809327
S1130D706C0280916C0290916D0290936F0280934B
S1130D806E0289819A81AB81BC810197A109B10965
S1130D9089839A83AB83BC8389818D8389819A817A
S1130DA0AB81BC81892F9A2FAB2FBB2789839A8370
S1130DB0AB83BC8389818E8389E990E02E81FC0119
S1130DC0208388E990E02D81FC0120838BE08D83D2
S1130DD081E990E02D81FC01208381E790E0FC0112
S1130DE080818D838D8182608D8381E790E02D8168
S1130DF0FC0120832A960FB6F894DEBF0FBECDBF48
S1130E00DF91CF910895EBDE1895CF93DF9300D057
S1130E101F92CDB7DEB79C838B831A82198222D7A7
S1130E208091360C9091370C892B31F481E792E054
S1130E309093370C8093360C2091340C3091350C00
S1130E408B819C81820F931F833C994038F52091BC
S1130E50340C3091350C8B819C81280F391F809183
S1130E60340C9091350C82179307C0F42091360C02
S1130E703091370C8091340C9091350C820F931F74
S1130E809A8389832091340C3091350C8B819C8119
S1130E90820F931F9093350C8093340CEFD6898185
S1130EA09A810F900F900F900F90DF91CF9108953A
S1130EB0CF93DF931F921F92CDB7DEB79A838983B6
S1130EC00F900F90DF91CF910895CF93DF9300D0CF
S1130ED01F921F92CDB7DEB79C838B836D838B816A
S1130EE09C819A8389830FB6F8940F9289819A81A1
S1130EF0FC018081918129813A81F901238D422F5E
S1130F0050E029813A81F901248D222F30E0429F5B
S1130F10B001439F700D529F700D11249B01280F47
S1130F20391F89819A81FC013383228389819A81C3
S1130F30FC01128E89819A81FC0120813181898191
S1130F409A81FC013583248389819A81FC01808103
S1130F50918129813A81F901238D222F30E0A90161
S1130F604150510929813A81F901248D222F30E021
S1130F70429FB001439F700D529F700D11249B013D
S1130F80280F391F89819A81FC013783268389813F
S1130F909A812FEFFC01258F89819A812FEFFC0123
S1130FA0268F8D81882379F489819A81FC0180853B
S1130FB0882389F089819A8108960E94C41081301F
S1130FC051F4ACDD08C089819A810896CAD8898118
S1130FD09A814196C6D80F900FBE81E00F900F9072
S1130FE00F900F900F90DF91CF910895CF93DF93DF
S1130FF0CDB7DEB72B970FB6F894DEBF0FBECDBFCB
S113100089876A874B871C821B828A85882319F407
S11310101A82198211C08985282F30E08A85882F89
S113102090E0289FA001299F500D389F500D112456
S1131030CA0101969A83898389819A814F96E5DE54
S11310409E838D838D819E81892B59F18D819E8113
S113105098878F838A85882341F48F8198852F818F
S11310603885FC01318320830AC08D819E819C01D7
S1131070215E3F4F8F819885FC01318320838F81CE
S113108098852985FC01238F8F8198852A85FC0109
S1131090248F8F81988561E018DF8F8198859C83E8
S11310A08B838B819C812B960FB6F894DEBF0FBE89
S11310B0CDBFDF91CF910895CF93DF9300D01F92DE
S11310C0CDB7DEB78B836C8342E060E08B818EDF2B
S11310D09A83898389819A81892B29F089819A81CC
S11310E02C81FC01228F89819A810F900F900F909F
S11310F00F90DF91CF910895CF93DF93CDB7DEB7F3
S11311002E970FB6F894DEBF0FBECDBF99878887A0
S11311107B876A875D874C872E87198288859985A6
S11311209B838A830FB6F8940F928A819B81FC017A
S1131130228D8A819B81FC01838D281718F08E856E
S11311408230F9F42A853B858A819B814E85B901D9
S1131150F3D18C838A819B81FC018189882349F0A6
S11311608A819B8141960E94C410813031F4D6DC7F
S113117004C08C81882309F0D1DC0F900FBE81E07C
S113118057C08C859D85892B21F40F900FBE80E07C
S11311904FC08981882331F4CE0105960E94311114
S11311A081E089830F900FBE5DD50FB6F8940F923E
S11311B08A819B81FC01858D8F3F21F48A819B81EB
S11311C0FC01158E8A819B81FC01868D8F3F21F461
S11311D08A819B81FC01168E0F900FBE9E01245FB5
S11311E03F4FCE010596B9010E944D118823C9F4E1
S11311F08A819B812ED3882379F02C853D858A8131
S11312009B810896B9015AD78A819B81A4D236D58D
S1131210882369F483DC0BC08A819B819CD22ED500
S113122081CF8A819B8197D229D580E001C07ACF72
S11312302E960FB6F894DEBF0FBECDBFDF91CF91CF
S11312400895CF93DF93CDB7DEB72B970FB6F894FD
S1131250DEBF0FBECDBF9E838D8378876F835A8791
S113126049872B878D819E819B838A831C828A81F7
S11312709B81FC01228D8A819B81FC01838D28172F
S113128018F08B85823081F52F8138858A819B8186
S11312904B85B90151D18A819B81FC01868D8F3F99
S11312A0B1F48A819B81FC0181898823D1F08A81F0
S11312B09B81419669D78823A1F089859A85892BDA
S11312C081F089859A8521E0FC0120830AC08A8106
S11312D09B81FC01868D8F5F282F8A819B81FC0175
S11312E0268F81E0898301C0198289812B960FB6EC
S11312F0F894DEBF0FBECDBFDF91CF910895CF9399
S1131300DF93CDB7DEB72F970FB6F894DEBF0FBECD
S1131310CDBF9A8789877C876B875E874D872F87A8
S1131320198289859A859B838A830FB6F8940F92D4
S11313308A819B81FC01828D882309F440C08A81C3
S11313409B81FC01868197819D838C832B853C85C1
S11313508A819B81B901AFD18F858823C1F48A81A9
S11313609B81FC01828D2FEF280F8A819B81FC01D8
S1131370228F8A819B81FC0180858823E1F08A8108
S11313809B81089601D78130B1F4C8DB14C08A81EF
S11313909B812C813D81FC01378326838A819B813B
S11313A0FC018189882339F08A819B814196ECD69E
S11313B0882309F0B3DB0F900FBE81E055C08D8503
S11313C09E85892B21F40F900FBE80E04DC089814A
S11313D0882329F4CE01069644D781E089830F90AF
S11313E00FBE40D40FB6F8940F928A819B81FC0102
S11313F0858D8F3F21F48A819B81FC01158E8A8122
S11314009B81FC01868D8F3F21F48A819B81FC01A5
S1131410168E0F900FBE9E01235F3F4FCE0106969E
S1131420B9013BD78823C9F48A819B81F5D18823EC
S113143079F02D853E858A819B814196B9013ED6FE
S11314408A819B8188D11AD4882369F467DB0BC015
S11314508A819B8180D112D468CF8A819B817BD180
S11314600DD480E001C061CF2F960FB6F894DEBF93
S11314700FBECDBFDF91CF910895CF93DF93CDB74A
S1131480DEB72A970FB6F894DEBF0FBECDBF9E839A
S11314908D8378876F835A8749878D819E819B834B
S11314A08A831C828A819B81FC01828D8823C9F1F5
S11314B02F8138858A819B81B901FDD08A819B81E6
S11314C0FC01828D2FEF280F8A819B81FC01228FE2
S11314D08A819B81FC01858D8F3FB1F48A819B8138
S11314E0FC0180858823D1F08A819B8108964CD6A3
S11314F08823A1F089859A85892B81F089859A852D
S113150021E0FC0120830AC08A819B81FC01858D36
S11315108F5F282F8A819B81FC01258F81E089833D
S113152001C0198289812A960FB6F894DEBF0FBED6
S1131530CDBFDF91CF910895CF93DF9300D000D03A
S1131540CDB7DEB79B838A837D836C834E831982F8
S11315508A819B81FC01848D882309F498C08E8143
S11315608823D9F58A819B81FC01848D482F50E022
S11315708A819B81FC01848195812C813D81B90103
S11315800E94AE1A8A819B81FC01248135818A8163
S11315909B81FC01848D882F90E0280F391F8A815C
S11315A09B81FC01358324838A819B81FC012481F6
S11315B035818A819B81FC018281938128173907B7
S11315C008F465C08A819B81FC01208131818A8174
S11315D09B81FC01358324835AC08A819B81FC0151
S11315E0848D482F50E08A819B81FC0186819781FC
S11315F02C813D81B9010E94AE1A8A819B81FC0134
S1131600268137818A819B81FC01848D882F90E01B
S1131610919581959109280F391F8A819B81FC013D
S1131620378326838A819B81FC01268137818A81C5
S11316309B81FC018081918128173907A8F48A8154
S11316409B81FC01228133818A819B81FC01848DF1
S1131650882F90E0919581959109280F391F8A81EF
S11316609B81FC01378326838E81823081F48A81B9
S11316709B81FC01828D882351F08A819B81FC012E
S1131680828D2FEF280F8A819B81FC01228F8A8112
S11316909B81FC01828D21E0280F8A819B81FC01C2
S11316A0228F898126960FB6F894DEBF0FBECDBF78
S11316B0DF91CF910895CF93DF9300D01F92CDB7E0
S11316C0DEB79A8389837C836B8389819A81FC0149
S11316D0848D8823C9F189819A81FC01268137810F
S11316E089819A81FC01848D882F90E0280F391F0D
S11316F089819A81FC013783268389819A81FC013F
S11317002681378189819A81FC01828193812817FE
S1131710390750F089819A81FC01208131818981C6
S11317209A81FC013783268389819A81FC01848D07
S1131730482F50E089819A81FC01268137818B8171
S11317409C81B9010E94AE1A0F900F900F900F90D8
S1131750DF91CF910895CF93DF931F921F92CDB75E
S1131760DEB79A8389830FB6F8940F9219C08981E2
S11317709A81FC018189882341F089819A8141966B
S113178003D5882319F0F0D501C010C089819A814E
S1131790FC01868D8150282F89819A81FC01268F36
S11317A089819A81FC01868D18160CF389819A81AE
S11317B02FEFFC01268F0F900FBE0FB6F8940F92F7
S11317C019C089819A81FC018085882391F08981DF
S11317D09A810896D9D4882309F0C6D589819A813B
S11317E0FC01858D8150282F89819A81FC01258FE8
S11317F001C006C089819A81FC01858D18160CF3FD
S113180089819A812FEFFC01258F0F900FBE0F90D5
S11318100F90DF91CF910895CF93DF9300D0CDB790
S1131820DEB79B838A830FB6F8940F928A819B81DB
S1131830FC01828D882319F481E0898301C0198217
S11318400F900FBE89810F900F900F90DF91CF9171
S11318500895CF93DF9300D0CDB7DEB79B838A83FF
S11318600FB6F8940F928A819B81FC01228D8A81A4
S11318709B81FC01838D281719F481E0898301C0C1
S113188019820F900FBE89810F900F900F90DF91F6
S1131890CF910895CF93DF9300D000D0CDB7DEB7BA
S11318A09C838B837E836D838B819C819A838983C4
S11318B00FB6F8940F9289819A81FC01858D8F3F30
S11318C021F489819A81FC01158E89819A81FC0118
S11318D0868D8F3F21F489819A81FC01168E0F90A9
S11318E00FBE89819A81FC01828D882339F4898114
S11318F09A8141962D813E81B90113D489819A81BF
S11319002ADF26960FB6F894DEBF0FBECDBFDF9157
S1131910CF910895AF92BF92CF92DF92EF92FF9250
S11319200F931F93CF93DF93CDB7DEB764970FB6B2
S1131930F894DEBF0FBECDBF9F838E8379876887FF
S11319405B874A873D872C870E87F88AEF86DA8A79
S1131950C98ABC8AAB8A29893A898A859B85B90157
S113196055D69B838A838A819B81892B09F48FC0F6
S11319708A819B81FC012789308D8A859B8501970B
S1131980820F931F9D838C834A855B852B893C89B9
S1131990688579858A819B818A014E85EFD44C853F
S11319A05D852E813F818C819D81B9010E949203C6
S11319B09C018A819B81FC01318320838F859889D6
S11319C0892B39F08F8598892A813B81FC013183E9
S11319D020830FB6F8940F928091870C8F5F8093C9
S11319E0870C8091380C9091390C892B61F48A8191
S11319F09B819093390C8093380C8091870C8130B3
S1131A00A9F440D513C080918B0C882379F480917C
S1131A10380C9091390CFC0196898E85891730F029
S1131A208A819B819093390C8093380C80918F0C20
S1131A308F5F80938F0C8A819B81FC0196898091B2
S1131A408A0C891730F48A819B81FC0186898093F2
S1131A508A0C8A819B81AC014E5F5F4F8A819B8196
S1131A60FC018689282F30E0C901880F991F880F4F
S1131A70991F880F991F820F931F865C934FBA0199
S1131A800E94F90081E089830F900FBE02C08FEF9E
S1131A9089838981813071F480918B0C882351F082
S1131AA08091380C9091390CFC0196898E85981799
S1131AB008F434D8898164960FB6F894DEBF0FBE5B
S1131AC0CDBFDF91CF911F910F91FF90EF90DF90E9
S1131AD0CF90BF90AF900895CF93DF9300D01F9223
S1131AE0CDB7DEB79C838B830FB6F8940F928B81AE
S1131AF09C81892B29F48091380C9091390C02C077
S1131B008B819C819A83898389819A8102960E9420
S1131B10BD0189819A81FC0184899589892B29F0E9
S1131B2089819A810C960E94BD0189819A810296CD
S1131B30BC018DE79CE00E94F9008091860C8F5FC8
S1131B408093860C80918F0C8F5F80938F0C0F9005
S1131B500FBE80918B0C882391F08091380C90916A
S1131B60390C29813A812817390719F40E948E0506
S1131B7006C00FB6F8940F92A4D50F900FBE0F9025
S1131B800F900F900F90DF91CF910895CF93DF9333
S1131B9000D01F921F92CDB7DEB79D838C8319822C
S1131BA08C819D81892BB9F05DD02091880C309176
S1131BB0890C8C819D81820F931F9B838A838091E2
S1131BC0380C9091390C02960E94BD018A819B8148
S1131BD0D2D454D089838981882311F40E948E053C
S1131BE00F900F900F900F900F90DF91CF91089569
S1131BF0AF92BF92CF92DF92EF92FF920F93CF9367
S1131C00DF931F92CDB7DEB7A12CB12CC12CD12C00
S1131C10E12CF12C00E020E030E049EB50E062E000
S1131C2072E08CE790E076DE89838981813011F45B
S1131C3090D589838981813051F4F89481E080932F
S1131C408B0C1092890C1092880C0E9456050F90F0
S1131C50DF91CF910F91FF90EF90DF90CF90BF90E5
S1131C60AF900895CF93DF93CDB7DEB78091900CFA
S1131C708F5F8093900CDF91CF910895CF93DF9382
S1131C8000D0CDB7DEB719820FB6F8940F928091C9
S1131C90900C81508093900C8091900C882309F0D3
S1131CA070C08091870C882309F46BC049C080916F
S1131CB0790C90917A0CFC01868197819B838A83AD
S1131CC08A819B810C960E94BD018A819B81029628
S1131CD00E94BD018A819B81FC01968980918A0CB6
S1131CE0891730F48A819B81FC01868980938A0C50
S1131CF08A819B81AC014E5F5F4F8A819B81FC018D
S1131D008689282F30E0C901880F991F880F991FF1
S1131D10880F991F820F931F865C934FBA010E940C
S1131D20F9008A819B81FC0126898091380C90916D
S1131D30390CFC018689281718F081E080938D0CFA
S1131D408091740C882309F0B2CF80918C0C882385
S1131D5081F00BC037D0882319F081E080938D0C7B
S1131D6080918C0C815080938C0C80918C0C8823F6
S1131D7089F780918D0C813021F481E089830E9460
S1131D808E050F900FBE89810F900F900F90DF91F9
S1131D90CF910895CF93DF931F921F92CDB7DEB7F3
S1131DA00FB6F8940F928091880C9091890C9A83C5
S1131DB089830F900FBE89819A810F900F90DF91D4
S1131DC0CF910895CF93DF93CDB7DEB729970FB6A0
S1131DD0F894DEBF0FBECDBF19828091900C88238A
S1131DE009F0C8C08091880C9091890C0196909359
S1131DF0890C8093880C8091880C9091890C9B832A
S1131E008A838A819B81892BD1F48091700C909173
S1131E10710C9D838C838091720C9091730C9093C0
S1131E20710C8093700C8C819D819093730C8093C2
S1131E30720C80918E0C8F5F80938E0C42D48091B3
S1131E400002909101022A813B812817390708F486
S1131E5077C08091700C9091710CFC018081882373
S1131E6039F48FEF9FEF909301028093000268C0D2
S1131E708091700C9091710CFC0185819681FC011C
S1131E80868197819F838E838E819F81FC018281CD
S1131E909381998788872A813B818885998528172A
S1131EA0390738F48885998590930102809300025C
S1131EB047C08E819F8102960E94BD018E819F81C1
S1131EC0FC0184899589892B29F08E819F810C9648
S1131ED00E94BD018E819F81FC01968980918A0CAC
S1131EE0891730F48E819F81FC01868980938A0C46
S1131EF08E819F81AC014E5F5F4F8E819F81FC017B
S1131F008689282F30E0C901880F991F880F991FEF
S1131F10880F991F820F931F865C934FBA010E940A
S1131F20F9008E819F81FC0126898091380C909163
S1131F30390CFC018689281710F081E0898389CF48
S1131F408091380C9091390CFC018689282F30E05F
S1131F50C901880F991F880F991F880F991F820F35
S1131F60931F865C934FFC018081823040F081E0B6
S1131F70898305C080918C0C8F5F80938C0C809139
S1131F808D0C882311F081E08983898129960FB60D
S1131F90F894DEBF0FBECDBFDF91CF910895CF93EC
S1131FA0DF931F921F92CDB7DEB78091900C8823E8
S1131FB021F081E080938D0C7CC010928D0C809177
S1131FC0380C9091390CFC01208131818091380CBE
S1131FD09091390CFC018789908D8217930770F0DA
S1131FE08091380C9091390C9C01275E3F4F809171
S1131FF0380C9091390CB9010E94C81905C0809120
S11320008A0C815080938A0C80918A0C282F30E0AE
S1132010C901880F991F880F991F880F991F820F74
S1132020931F865C934FFC018081882341F3809148
S11320308A0C282F30E0C901880F991F880F991F37
S1132040880F991F820F931F865C934F9A8389830D
S113205089819A81FC0181819281FC0122813381F1
S113206089819A81FC013283218389819A81FC01CF
S11320702181328189819A8103962817390769F46D
S113208089819A81FC0181819281FC0122813381C1
S113209089819A81FC013283218389819A81FC019F
S11320A081819281FC01868197819093390C809380
S11320B0380C0F900F90DF91CF910895CF93DF9359
S11320C000D000D0CDB7DEB79C838B837E836D8335
S11320D08091380C9091390C9C01245F3F4F8B8187
S11320E09C81B9010E9446018091380C9091390C71
S11320F002960E94BD012091880C3091890C8D813B
S11321009E81820F931F9A83898389819A8133D216
S113211026960FB6F894DEBF0FBECDBFDF91CF91E8
S11321200895CF93DF9300D000D0CDB7DEB79C8362
S11321308B837E836D838091380C9091390C9C0144
S1132140245F3F4F8B819C81B9010E94F9008091EB
S1132150380C9091390C02960E94BD012091880C94
S11321603091890C8D819E81820F931F9A8389837C
S113217089819A8100D226960FB6F894DEBF0FBEED
S1132180CDBFDF91CF910895CF93DF9300D01F92FD
S11321901F92CDB7DEB79D838C838C819D81FC011A
S11321A085819681FC01868197819B838A838A81BC
S11321B09B810C960E94BD018091900C882369F547
S11321C08A819B8102960E94BD018A819B81FC01C8
S11321D0968980918A0C891730F48A819B81FC014D
S11321E0868980938A0C8A819B81AC014E5F5F4F04
S11321F08A819B81FC018689282F30E0C901880FE0
S1132200991F880F991F880F991F820F931F865C4F
S1132210934FBA010E94F90008C08A819B810C96F1
S1132220BC0184E79CE00E94F9008A819B81FC0147
S113223026898091380C9091390CFC01868982178B
S113224030F481E0898381E080938D0C01C0198290
S113225089810F900F900F900F900F90DF91CF9185
S11322600895CF93DF931F921F92CDB7DEB79A8361
S1132270898320918E0C89819A81FC01208320918D
S1132280880C3091890C89819A81FC0132832183E5
S11322900F900F90DF91CF910895CF93DF93CDB737
S11322A0DEB727970FB6F894DEBF0FBECDBF9D8370
S11322B08C837F836E830FB6F8940F928091880C81
S11322C09091890C9B838A838C819D81FC019081F0
S11322D080918E0C981769F08C819D81FC0121817D
S11322E032818A819B818217930718F081E0898368
S11322F02FC08C819D81FC01818192812A813B8147
S1132300281B390B8E819F81FC01808191812817C4
S11323103907E0F48E819F81FC01208131818C8119
S11323209D81FC01418152818A819B81BA01681B94
S1132330790BCB01280F391F8E819F81FC013183DA
S113234020838C819D818DDF198202C081E0898385
S11323500F900FBE898127960FB6F894DEBF0FBE8B
S1132360CDBFDF91CF910895CF93DF93CDB7DEB783
S113237081E080938D0CDF91CF9108950F931F938B
S1132380CF93DF93CDB7DEB72A970FB6F894DEBFAD
S11323900FBECDBF9B838A837D836C834E83388736
S11323A02F831A870987198222C08981882F90E098
S11323B02981222F30E04C815D81240F351FF901E2
S11323C040812A813B81820F931F4996FC014083FF
S11323D08981882F90E02C813D81820F931FFC011D
S11323E08081882309F406C089818F5F898389816C
S11323F08830D8F28A819B81FC0110A28E818430BE
S113240010F083E08E838A819B812E81FC01268BD0
S11324108A819B8102960E94E7008A819B810C96A7
S11324200E94E7008A819B812A813B81FC013187DC
S113243020878E81882F90E024E030E0281B390B20
S11324408A819B81FC01358724878A819B812A812B
S11324503B81FC01338B228B8A819B81FC0111A27D
S113246012A213A214A28A819B81FC0115A22A96AE
S11324700FB6F894DEBF0FBECDBFDF91CF911F9191
S11324800F910895CF93DF931F92CDB7DEB71982D2
S113249013C08981282F30E0C901880F991F880F44
S11324A0991F880F991F820F931F865C934F0E9478
S11324B0B10089818F5F89838981843050F38EE5EF
S11324C09CE00E94B10087E69CE00E94B10084E792
S11324D09CE00E94B1008DE79CE00E94B1008EE573
S11324E09CE09093710C8093700C87E69CE0909331
S11324F0730C8093720C0F90DF91CF910895CF935A
S1132500DF9300D0CDB7DEB72CC0ACDB90917D0C4F
S113251081E0992309F080E08983B0DB89818823F5
S113252001F50FB6F8940F928091820C9091830C70
S1132530FC01868197819B838A838A819B81029691
S11325400E94BD018091870C81508093870C8091FB
S1132550860C81508093860C0F900FBE8A819B81DC
S113256098D08091860C882381F60F900F900F905D
S1132570DF91CF910895CF93DF931F921F92CDB730
S1132580DEB79A8389838091380C9091390C298124
S11325903A81FC01338322838091880C9091890CC9
S11325A029813A812817390778F48091380C909161
S11325B0390C9C012E5F3F4F8091720C9091730CEB
S11325C0B9010E9446011DC08091380C9091390CCC
S11325D09C012E5F3F4F8091700C9091710CB9015A
S11325E00E944601809100029091010229813A8162
S11325F02817390730F489819A81909301028093D6
S113260000020F900F90DF91CF910895CF93DF9345
S1132610CDB7DEB728970FB6F894DEBF0FBECDBF97
S11326209E838D8378876F838F819885892B29F486
S11326308D819E810E94050702C08F8198859C83AD
S11326408B838B819C81892BB9F086E290E00E9478
S113265005079A83898389819A81892B41F089812D
S11326609A812B813C81FC01308F278B07C08B81A1
S11326709C810E94580702C01A82198289819A811A
S113268028960FB6F894DEBF0FBECDBFDF91CF9171
S11326900895CF93DF931F921F92CDB7DEB79A832D
S11326A0898389819A81FC018789908D0E945807CA
S11326B089819A810E9458070F900F90DF91CF91E2
S11326C00895CF93DF931F921F92CDB7DEB7809109
S11326D0700C9091710CFC018081882339F48FEF88
S11326E09FEF909301028093000215C08091700CBB
S11326F09091710CFC0185819681FC018681978102
S11327009A83898389819A81FC0182819381909340
S11327100102809300020F900F90DF91CF910895F2
S1132720CF93DF931F92CDB7DEB780918B0C8823B4
S113273019F481E0898308C08091900C882319F4EE
S113274082E0898301C0198289810F90DF91CF9142
S11327500895AF92BF92CF92DF92EF92FF920F93C0
S1132760CF93DF931F92CDB7DEB71982ABD380919D
S1132770A70C9091A80C892B89F0A12CB12CC12C09
S1132780D12CE12CF12C04E020E030E049EB50E0C6
S113279067E072E08EEE94E1BDD8898389810F9061
S11327A0DF91CF910F91FF90EF90DF90CF90BF908A
S11327B0AF9008950F931F93CF93DF93CDB7DEB7F8
S11327C02B970FB6F894DEBF0FBECDBF9C838B83CF
S11327D07E836D834F83398728871B870A878D8182
S11327E09E81892B19F41A82198231C083E190E009
S11327F00E9405079A83898389819A81892B39F1FB
S113280061D389819A812B813C81FC0131832083AE
S113281089819A812D813E81FC01358724878981B4
S11328209A812F81FC01268789819A81288539859F
S1132830FC01308B278789819A812A853B85FC019D
S1132840328B218B89819A8102960E94E7008981CB
S11328509A812B960FB6F894DEBF0FBECDBFDF91E1
S1132860CF911F910F9108950F931F93CF93DF93EF
S1132870CDB7DEB72F970FB6F894DEBF0FBECDBF2E
S113288098878F8369875B874A873D872C871F8753
S11328900E8719828091A70C9091A80C892BC9F1FD
S11328A089858A838A859B859C838B838F81988580
S11328B09E838D8389858630FCF432DF823071F407
S11328C08091A70C9091A80C4E855F85BE016E5F28
S11328D07F4F20E00E947C0889831BC08091A70C55
S11328E09091A80CBE016E5F7F4F20E040E050E065
S11328F00E947C0889830DC08091A70C9091A80C3C
S11329004C855D85BE016E5F7F4F20E00E942109EA
S1132910898389812F960FB6F894DEBF0FBECDBF91
S1132920DF91CF911F910F9108950F931F93CF9330
S1132930DF93CDB7DEB727970FB6F894DEBF0FBE8F
S1132940CDBF9D838C837F836E838091A30C9091F4
S1132950A40CFC0185819681FC01868197819A8370
S1132960898389819A8102960E94BD0189819A8115
S1132970FC0186858130F1F489819A81FC012485EA
S113298035858C819D81B901680F791F2C813D812A
S11329904E815F8189819A81DAD0813059F44C81EA
S11329A05D8189819A8100E010E020E030E060E000
S11329B05BDF8B8389819A81FC012189328989813A
S11329C09A81F901199527960FB6F894DEBF0FBEC8
S11329D0CDBFDF91CF911F910F910895CF93DF93D6
S11329E000D01F921F92CDB7DEB79D838C83CE019A
S11329F003964AD09A8389832B8189819A81622F95
S1132A0002D012D1F4CFCF93DF9300D000D0CDB752
S1132A10DEB79D838C836E8325D9CE01039669D05E
S1132A209A8389838B81882329F58E81882379F47D
S1132A302C813D8189819A818217930740F01ED9A8
S1132A4029813A818C819D81B9016FDF14C02C8169
S1132A503D8189819A81281B390B8091A70C909123
S1132A60A80CB9010E944A0C09D9882321F40E94B8
S1132A708E0501C003D926960FB6F894DEBF0FBEAB
S1132A80CDBFDF91CF910895CF93DF9300D01F92F4
S1132A90CDB7DEB79C838B838091A30C9091A40C5B
S1132AA0FC01908181E0992309F080E0282F8B813B
S1132AB09C81FC0120838B819C81FC018081882383
S1132AC069F48091A30C9091A40CFC0185819681FA
S1132AD0FC01808191819A83898302C01A821982C0
S1132AE089819A810F900F900F900F90DF91CF9171
S1132AF00895CF93DF9300D01F92CDB7DEB79C83A8
S1132B008B8348D99A8389838091A90C9091AA0CCC
S1132B1029813A812817390738F43BD18B819C816C
S1132B2021E0FC01208304C08B819C81FC01108284
S1132B3089819A819093AA0C8093A90C89819A81A6
S1132B400F900F900F900F90DF91CF910895CF9336
S1132B50DF93CDB7DEB729970FB6F894DEBF0FBE6B
S1132B60CDBF9B838A837D836C835F834E83398748
S1132B70288719828A819B812C813D81FC013383C2
S1132B8022838A819B812A813B81FC0131872087B2
S1132B902C813D818E819F8182179307F0F02E81D5
S1132BA03F8188859985281B390B8A819B81FC018B
S1132BB0848595852817390718F081E089832AC010
S1132BC08A819B819C012E5F3F4F8091A50C90913F
S1132BD0A60CB9010E9446011DC02E813F81888543
S1132BE099852817390750F42C813D81888599856A
S1132BF02817390718F081E089830CC08A819B81EA
S1132C009C012E5F3F4F8091A30C9091A40CB901BD
S1132C100E944601898129960FB6F894DEBF0FBE43
S1132C20CDBFDF91CF9108950F931F93CF93DF937F
S1132C30CDB7DEB72B970FB6F894DEBF0FBECDBF6E
S1132C408EC08E8188230CF48AC089859A859A83E4
S1132C50898389819A81DC011A968D919C911B97B5
S1132C60892B29F089819A8102960E94BD01CE01A7
S1132C700B963FDF9C838B838E81082E000C990B6F
S1132C80092E000CAA0BBB0B40E050E029E030E019
S1132C90841B950B2817390708F460C0FC018827AA
S1132CA0EE58FF4F8F4F52C4EF81F8852F8138853E
S1132CB089819A81DC011C968D919C911D97B901A3
S1132CC0680F791F4B815C8189819A819F013FDF65
S1132CD0813019F589819A81FC01218932898981A0
S1132CE09A81F901199589819A81DC011E968C914A
S1132CF0813099F42F81388589819A81FC018485FA
S1132D009585A901480F591F89819A8100E010E037
S1132D1020E030E060E0A8DD8D8321C02F8138857C
S1132D2089819A81DC011D963C932E931C9789819D
S1132D309A81FC01248535858B819C81B901680FBA
S1132D40791F2B813C814B815C8189819A81FFDED3
S1132D5006C089819A810E94580701C000008091B1
S1132D60A70C9091A80CBE016A5F7F4F20E040E061
S1132D7050E00E947F09882309F063CF2B960FB699
S1132D80F894DEBF0FBECDBFDF91CF911F910F919D
S1132D9008950F931F93CF93DF93CDB7DEB7299791
S1132DA00FB6F894DEBF0FBECDBF64C08091A30CF4
S1132DB09091A40CFC0185819681FC018081918114
S1132DC09A8389838091A30C9091A40CFC01858142
S1132DD09681FC01868197819C838B838B819C8166
S1132DE002960E94BD018B819C81FC01218932895C
S1132DF08B819C81F90119958B819C81FC018685CD
S1132E008130C1F58B819C81FC01248535858981C4
S1132E109A81820F931F9E838D832D813E818981A8
S1132E209A8182179307D8F48B819C812D813E81EE
S1132E30FC01338322838B819C812B813C81FC01A7
S1132E40318720878B819C819C012E5F3F4F80912D
S1132E50A30C9091A40CB9010E9446010BC04981B6
S1132E605A818B819C8100E010E020E030E060E03A
S1132E70FBDC8F838091A30C9091A40CFC018081D6
S1132E80882309F093CF8091A30C9091A40C998787
S1132E9088878091A50C9091A60C9093A40C8093A4
S1132EA0A30C888599859093A60C8093A50C2996EC
S1132EB00FB6F894DEBF0FBECDBFDF91CF911F9147
S1132EC00F910895CF93DF93CDB7DEB70FB6F89483
S1132ED00F928091A70C9091A80C892BE9F481E9B9
S1132EE09CE00E94B1008AE99CE00E94B10081E963
S1132EF09CE09093A40C8093A30C8AE99CE09093AB
S1132F00A60C8093A50C40E065E081E00E94F607E2
S1132F109093A80C8093A70C0F900FBEDF91CF91D4
S1132F200895CF93DF931F921F92CDB7DEB79A8394
S1132F3089838091B10C9091B20C20E040E050E084
S1132F4060E070E00E947C080F900F90DF91CF91B9
S1132F500895CF93DF931F921F92CDB7DEB79A8364
S1132F6089838091B50C9091B60C20E040E050E04C
S1132F7060E070E00E947C080F900F90DF91CF9189
S1132F800895CF93DF931F921F92CDB7DEB79A8334
S1132F9089838091AF0C9091B00C20E040E050E028
S1132FA060E070E00E947C080F900F90DF91CF9159
S1132FB00895CF93DF9300D01F92CDB7DEB79C83E3
S1132FC08B838091B10C9091B20C20E04FEF5FEFB6
S1132FD060E070E00E947F0982E290E022E230E04B
S1132FE0F901308121E02327FC0120830E94CA0ECD
S1132FF09A83898300000E94CA0E9C0189819A8168
S113300088519C4F28173907B0F382E290E022E2FE
S113301030E0F901308121E02327FC012083D1CF66
S1133020CF93DF9300D01F92CDB7DEB79C838B8301
S11330308091B50C9091B60C20E04FEF5FEF60E00B
S113304070E00E947F0982E290E022E230E0F90120
S1133050308122E02327FC0120830E94CA0E9A8338
S1133060898300000E94CA0E9C0189819A81805341
S1133070984F28173907B0F382E290E022E230E05B
S1133080F901308122E02327FC012083D1CFCF93A3
S1133090DF9300D01F92CDB7DEB79C838B838091E2
S11330A0AF0C9091B00C20E04FEF5FEF60E070E068
S11330B00E947F0982E290E022E230E0F90130814F
S11330C024E02327FC0120830E94CA0E9A8389836B
S11330D000000E94CA0E9C0189819A818053984FF6
S11330E028173907B0F382E290E022E230E0F901D8
S11330F0308124E02327FC012083D1CF0F931F9339
S1133100CF93DF931F921F92CDB7DEB79A83898343
S113311088EE93E00E94C60D8091AF0C9091B00CA4
S113312020E040E050E060E070E00E947C080E94F3
S1133130CA0EAC018091B90C9091BA0C00E010E079
S113314020E030E061E090DB80ED97E00E94C60D66
S11331508091B50C9091B60C20E040E050E060E026
S113316070E00E947C080E94CA0EAC018091B30CEE
S11331709091B40C00E010E020E030E061E074DBFA
S113318080ED97E00E94C60D8091B10C9091B20C35
S113319020E040E050E060E070E00E947C080E9483
S11331A0CA0EAC018091B70C9091B80C00E010E00D
S11331B020E030E061E058DB80E090E00E946C0D9C
S11331C00F900F90DF91CF911F910F910895AF92BF
S11331D0BF92CF92DF92EF92FF920F931F93CF9300
S11331E0DF93CDB7DEB781E290E02FEFFC012083BF
S11331F082E290E02FEFFC01208360E084E10E94F2
S11332005C089093B20C8093B10C60E084E10E945E
S11332105C089093B60C8093B50C60E084E10E9446
S11332205C089093B00C8093AF0C01E917E121E0A6
S113323030E041E068E873E18FE092E0BBDA90931C
S1133240B80C8093B70C09EA17E121E030E041E0C3
S113325060E177E287E192E0ADDA9093B40C809379
S1133260B30C01EC17E121E030E041E060E47FE1E0
S11332708FE192E09FDA9093BA0C8093B90CA12C61
S1133280B12CC12CD12CE12CF12C01E020E030E058
S113329049EB50E067E272E089ED97E10E948A0C05
S11332A0A12CB12CC12CD12CE12CF12C01E020E07B
S11332B030E049EB50E06EE272E080E198E10E9478
S11332C08A0CA12CB12CC12CD12CE12CF12C01E0C5
S11332D020E030E049EB50E065E372E087E498E1F8
S11332E00E948A0CA12CB12CC12CD12CE12CF12CE4
S11332F002E020E030E049EB50E06CE372E08EE75E
S113330098E10E948A0C0E94F80D80E090E0DF9121
S1133310CF911F910F91FF90EF90DF90CF90BF90CE
S1133320AF900895CF93DF93CDB7DEB70E9410031B
S1133330DF91CF9108951F920F9200905F000F923A
S1133340112400905B000F922F933F938F939F93D0
S1133350EF93FF93CF93DF93CDB7DEB782E290E094
S113336022E230E0F90120812D7FFC012083DF91EE
S1133370CF91FF91EF919F918F913F912F910F905A
S113338000925B000F9000925F000F901F901895C1
S1133390CF93DF9300D01F92CDB7DEB79A83898392
S11333A07C836B8382E290E022E230E0F9012081A9
S11333B02068FC0120830F900F900F900F90DF91F5
S11333C0CF9108951F920F9200905F000F921124E5
S11333D000905B000F922F933F934F935F936F93F3
S11333E07F938F939F93AF93BF93EF93FF93CF9369
S11333F0DF931F921F92CDB7DEB71A8286EC90E05E
S1133400FC01808189838091AB0C9091AC0CAE015E
S11334104E5F5F4F20E0BE016F5F7F4F0E94210926
S11334208A81882311F00E948E050F900F90DF91FE
S1133430CF91FF91EF91BF91AF919F918F917F9128
S11334406F915F914F913F912F910F9000925B008C
S11334500F9000925F000F901F9018951F920F928B
S113346000905F000F92112400905B000F922F9345
S11334703F934F935F936F937F938F939F93AF93F8
S1133480BF93EF93FF93CF93DF9300D0CDB7DEB715
S11334908091AD0C9091AE0CAE014D5F5F4F9E01DB
S11334A02E5F3F4FB9010E943D0A813031F486EC12
S11334B090E02A81FC0120830DC081EC90E0FC01A6
S11334C08081898389818F7D898381EC90E0298142
S11334D0FC0120830F900F900F90DF91CF91FF910B
S11334E0EF91BF91AF919F918F917F916F915F9178
S11334F04F913F912F910F9000925B000F9000929B
S11335005F000F901F901895A1E21A2EAA1BBB1BF7
S1133510FD010DC0AA1FBB1FEE1FFF1FA217B3079B
S1133520E407F50720F0A21BB30BE40BF50B661FB1
S1133530771F881F991F1A9469F760957095809575
S113354090959B01AC01BD01CF010895EE0FFF1FC3
S1133550881F8BBF0790F691E02D1994FB01DC01C5
S113356002C001900D9241505040D8F70895F8944C
S1053570FFCF87
S1133572FFFF49444C4500546D7220537663005456
S1133582696D657220310054696D65722032005490
S1133592696D65722033005461736B20310054618C
S11335A2736B2032005461736B203300436F6E746B
S10735B2726F6C00C4
S9030000FC
